:1000000000800020BD010000FD160000B5160000B4
:10001000B5160000B5160000B5160000B5160000B4
:10002000B5160000B5160000B5160000FD1600005C
:10003000FD160000B5160000C51B0000C91C00001D
:10004000FD160000FD160000FD160000FD16000064
:10005000FD160000FD160000FD160000FD16000054
:10006000FD160000FD160000FD160000FD16000044
:10007000FD160000FD160000FD160000FD16000034
:10008000FD160000FD160000FD160000FD16000024
:10009000FD160000FD160000FD160000FD16000014
:1000A000FD160000FD160000FD160000FD16000004
:1000B000FD160000FD160000FD160000FD160000F4
:1000C000FD160000FD160000FD160000FD160000E4
:1000D000FD160000FD160000FD160000FD160000D4
:1000E000FD160000FD160000FD160000FD160000C4
:1000F000FD16000035170000FD1600006118000015
:10010000FD1600008D190000FD160000FD16000010
:10011000FD160000FD160000FD160000FD16000093
:10012000FD160000FD160000FD160000FD16000083
:10013000FD160000FD160000FD160000FD16000073
:10014000FD160000FD160000FD160000FD16000063
:10015000FD160000FD160000FD160000FD16000053
:10016000FD16000099080000FD160000FD160000B5
:10017000FD160000FD160000FD160000FD16000033
:10018000FD160000FD160000FD160000FD16000023
:10019000FD160000FD160000FD160000FD16000013
:1001A000FD160000FD160000FD160000FD16000003
:1001B000FD160000FD160000FD160000564B4CF227
:1001C000205210B51A804DF628121A8000BF00BFC9
:1001D00001F098FA514B4FF010621A60504A9A6041
:1001E000504ADA60504A136813F4807304D14F49BF
:1001F0000B604FF4A85313604D4B1A78110703D5C9
:100200001A7842F008021A704A4B4B492A221A7097
:100210004A4A4B4B8B4204D252F8040F43F8040B6A
:10022000F8E7484B484900228B4202D243F8042B9E
:10023000FAE74649464A002352F8230041F82300D2
:1002400001336F2BF8D1434B434A802103F8011B44
:100250009342FBD1414B3D4A1A60414B8A221A70AE
:10026000A3F5805324225A70A0221A709A7992071B
:10027000FCD59A79D406FCD43A4A937903F00C035E
:10028000082B384BF9D103221A7140225A719A79FE
:100290009006FCD5334A9179324B4906FBD5324A58
:1002A000324911600221516020221A709A7902F0BD
:1002B0000C020C2AFAD12E4B2E4A1A602E4B4BF60A
:1002C0007F321A6000225A60072243F8042C2B4A1E
:1002D000C3F80C2D62B600F0ABF9144B1B68DA07BB
:1002E00005D5274800F038F9264B274A1A60274BD6
:1002F0001B785B0609D5234C234B22689A4204D114
:100300001F4800F029F90023236001F013FD01F0DC
:10031000FFF901F009F9FEE70E20054030800440A6
:10032000823F04000100002B10D0034014D0034092
:1003300002D0074000E00740508CFF1F2020000043
:100340002087FF1F508CFF1F188FFF1F0082FF1F89
:100350000000000000E400E05FE400E008ED00E0E1
:100360000050064000400640448004400000131145
:1003700004800440C010050014E000E000002020CC
:100380007DC39A5D1CE00340A5C3945A00F007406A
:10039000FFFFFFFFFFFFFFFFFFFFFFFFFFFFFFFF6D
:1003A000FFFFFFFFFFFFFFFFFFFFFFFFFFFFFFFF5D
:1003B000FFFFFFFFFFFFFFFFFFFFFFFFFFFFFFFF4D
:1003C000FFFFFFFFFFFFFFFFFFFFFFFFFFFFFFFF3D
:1003D000FFFFFFFFFFFFFFFFFFFFFFFFFFFFFFFF2D
:1003E000FFFFFFFFFFFFFFFFFFFFFFFFFFFFFFFF1D
:1003F000FFFFFFFFFFFFFFFFFFFFFFFFFFFFFFFF0D
:10040000FFFFFFFFFFFFFFFFFFFFFFFFDEF9FFFF23
:1004100010B5054C237833B9044B13B10448AFF33E
:1004200000800123237010BD508CFF1F00000000CE
:1004300024200000084B10B51BB108490848AFF351
:1004400000800848036803B910BD074B002BFBD0A0
:10045000BDE81040184700BF00000000548CFF1F8B
:1004600024200000508CFF1F0000000001210D20FF
:1004700000F08AB808B501210D2000F07FF84FF494
:100480007A7000F087F80D20002100F077F84FF423
:100490007A70BDE8084000F07DB800BF10B40F4B83
:1004A00053F8302092F880422CB1012369B182F8D0
:1004B000803010BC704703EBC0035B681A6841B919
:1004C00022F002021A6010BC704782F8003110BCA2
:1004D000704742F003021A6010BC7047701E0000A3
:1004E0001C4A02EBC00301295B6811D004291BD010
:1004F00052F83000002280F8802229B1022920D051
:10050000032922D01A6070474FF480721A60704736
:1005100052F830004FF4A27280F880121A601A6804
:1005200022F020021A60704752F830104FF4A27285
:10053000012081F880021A601A6842F020021A60D5
:10054000704740F203121A6070474FF481721A60CC
:10055000704700BF701E000030B4054B054D064CBF
:10056000002210211A602A602060196030BC704798
:1005700014D0034004D0034000D00340212801D808
:10058000FFF78CBF704700BF212801D8FFF7A8BF35
:10059000704700BF2DE9F843054672B6204F214B46
:1005A000214A1B683C68126862B6520102D5322BA0
:1005B00088BF013495B3C3F53B431C4EDFF864900C
:1005C000DFF864807F334FF47A72A6FB031302FBDB
:1005D00004F404EB531472B6D9F800103A68D8F852
:1005E00000E062B6C1F53B437F33A6FB03031EF078
:1005F000806FC4EB53134FF47A7002D0322988BF56
:10060000013200FB0233B3F57A7F04D3013D05D0FC
:1006100004F57A74DFE700F08FFFDCE7BDE8F883CC
:100620006C8CFF1F18E000E004ED00E0ABAAAAAA62
:10063000F8B52D4B2D49DFF8D0E0DFF8D0C02C4EB7
:100640002C4D2D4C2D4A2E4F4FF4000018604FF0CA
:10065000807018604FF0007018604FF08060186074
:100660004FF0006018600020086028234BF6FF71EF
:10067000CCF80010CEF80030336013602B6023609C
:100680003B60B3629362092245F8242CC4F8D80F6A
:1006900005F57F65C7F8D41F07F5FF2707F5FA674B
:1006A000C6F8F83F2B6006F5FF26C4F8D42F05F5F1
:1006B000FD2504F5FF24386006F2F4761148316018
:1006C00005F5FF6504F5FD642B602360026000F012
:1006D00081FF1920FFF75EFF00F022FE40F21310A9
:1006E000BDE8F840FFF756BF08E100E00480034092
:1006F00014800340248003402C8003401C8003406E
:100700003480034000800B400C800340088003408D
:10071000431E032B14D872B60A4951F8230068B15E
:1007200070B4094C058834F81320466841F82360FA
:10073000521B24F8132062B670BC704762B6704733
:1007400000207047C88CFF1F108FFF1F30B472B697
:100750002B4A13781D0706D52A4B196A002936D073
:10076000996A002941D053781C0706D5254B196C8E
:1007700000293ED0996C002939D09378190705D506
:10078000204B196E002936D0996E89B1D3781B079A
:1007900007D51C4BD3F880207AB3D3F888201121D9
:1007A0003AB162B6184B00221A7030BC00F044BE59
:1007B0000D21154C154D227843F8315003EBC10340
:1007C0000830013A5860227062B630BC704704228B
:1007D0000D4C0F4D217843F8325003EBC203083023
:1007E0004A1E5860227062B6EFE70521E1E7092151
:1007F000DFE70822ECE70C22EAE71022E8E700BF77
:10080000801F00000080FF1F458DFF1FC8004000B3
:1008100088004000431E032B1DD81B4A400140F0B6
:10082000100030B4104472B6184CE25C032A1BD896
:10083000DFE802F00212151703220D88E25410F0CF
:10084000080F14BFC823882343EA05430831036017
:10085000416062B630BC704708300222EDE70522E5
:10086000EBE708300422E8E7094A52F8230038B1E0
:10087000084A52F82300416042F8231062B6E9E7C3
:1008800042F82310034AF7E70080FF1F548DFF1F33
:100890001C8DFF1F2C8DFF1F2DE9F04FDFF814B3C7
:1008A000DFF814A387B044E0AC4F4FEA930807EB9E
:1008B000C809013ED9F8042003F00803F6B2A2F1FA
:1008C000080003F0FF04002B40F0FF8057F8383099
:1008D0001B0C99B222F8081C002B00F0ED80A04BF5
:1008E00022F8064C42F8044C53F82620002A00F067
:1008F000CD819C4D55F8263058609B4C45F826001C
:1009000034F81630194424F8161000F075FD00284C
:1009100000F0C081954A964B19F0080F00F10800CD
:1009200018BF1346C9F8040047F8383008238BF87D
:1009300000309BF80040E4B265071AD58D4B1B7858
:10094000A3B18D490A7802F0FF0322B1013BDBB26B
:100950000B7003B900BE89490A7802F0FF032AB17F
:10096000013BDBB20B70002B00F0668104238BF897
:10097000003004F0080303F0FF02002B00F0C980F0
:100980009AF80030DBB21E098ED19A08DFF8CC91BC
:1009900059F8321009EBC200C1F3830101394068F4
:1009A0000C2900F28580DFE801F07A7A8383838363
:1009B00083834683838307000168714D4068714FCC
:1009C000714E6860296088B240F281610024674BF3
:1009D00049F832304FF0010E88423C60C9F81040AF
:1009E000C9F8184086F800E05C4A00F2E780B0F5EC
:1009F000D06F80F01B82B0F5817F00F0D98100F2CA
:100A00006981802800F02A82822840F0D781A98855
:100A100001F07F01042900F2D1815C485C4A890021
:100A200008441470547001788C0740F1608382F898
:100A300000E0022173E1534F3A682AB3554B524EFE
:100A4000554819883478057840298E4645F00208C3
:100A500028BF4FF0400E002C84F001043470CEEB20
:100A600001010CBF8824C82409EBC80689B285F0AF
:100A7000010544EA0E447260198049F83840724416
:100A80000570002965D03A603D4B1A88B2F5A06F19
:100A90000ED100219A785970404B1A7008E03849FD
:100AA0003F4C0D68A54200F09880304949F832105B
:100AB0003C4A0123137039E72C4A2D4B19F0080FDB
:100AC00018BF134647F8383030E700F0B5FC364A17
:100AD000364952F82630002B00F0E38058688C5DD0
:100AE00042F8260003F10802C9F80420032C05D8B7
:100AF000DFE804F02C02292602228A551A8819F010
:100B0000080F0CBF8823C82343EA024347F8383054
:100B10000CE7E00700F19380210600F1D180A207E5
:100B200006D5234A234913780220DBB213700870DC
:100B3000E30602D51F4B10221A7007B0BDE8F08FF4
:100B400004228A55DAE705228A55D7E703228A5517
:100B5000D4E7BEF1400F18BF002294E70080FF1FCA
:100B6000C88CFF1F748CFF1F108FFF1FC800400030
:100B700088004000508DFF1FD98CFF1F648DFF1F20
:100B80003C8DFF1F708CFF1FD88CFF1FC0200740BB
:100B9000488DFF1F848CFF1F448DFF1F9820074046
:100BA00021090003942007401C8DFF1F548DFF1F57
:100BB000882007408020074090200740B0F5106F44
:100BC00000F07C8140F2A38040F62112904240F078
:100BD0007B82A54A012313706AE74C68A3498C42C3
:100BE0007FF463AF0178A9297FF45FAF417845298D
:100BF0007FF45BAF8178C2297FF457AFC1786B294E
:100C00007FF453AF9A489B4E0178347881F0010508
:100C1000002C41F0020105700CBF8820C82084F030
:100C2000010449F8310009EBC101934834700025F3
:100C300005244D60047038E700F056FC96E68F4BB3
:100C400089488B491A614FF0020E80F800E08C4F02
:100C50000A708C49196099608B4E8C4D8C4C9A614E
:100C60000D213970FF213170DFF84CE229702270BC
:100C7000884D894A8EF800109F27012406F8047CCD
:100C80005D600470DA6007B0BDE8F08F43F82600BD
:100C9000824D32E6824A47F83800137801331370E8
:100CA00044E68B5D032B00F2BA8001A252F823F0D8
:100CB0002D0900002D090000090D0000030D0000A2
:100CC0006F49724B80220D2008701A70A2077FF5C1
:100CD0002FAF26E740F20232904240F0ED81AA8821
:100CE00002F07F02042A69D86D88002D66D164491C
:100CF000CDF804E0920011440A7842F002020A7032
:100D0000C1E101238B5511E600238B550EE6B0F5AA
:100D1000086F53D16349644A097811707146ED88B0
:100D20008D4280F0E88252480478402DAE4644F06F
:100D3000020C28BF4FF0400E02EB0E0309EBCC0172
:100D4000029301234A604FEA0E48CEEB050101935E
:100D50000025C82242EA080384F0010249F83C3029
:100D600035700270DFF814C1424BDFF8048149BBD3
:100D7000BEF1400F7FF42DAF42F0020C09EBCC0323
:100D8000029ADFF8F8E05A608DBB0D0445F0880543
:100D90009DF804304EF83C500A44337004701346FA
:100DA00040297FF416AF0021404A3B60118010E7D4
:100DB000AA8802F07F02042A40F28B81304A0F2376
:100DC000137006E74029D7D942F002020CEBC200AB
:100DD000029E4660BDB19DF8045035481D703346F3
:100DE000403988F8004040334CF83200DCE79DF889
:100DF000043033700D04029B047045F0C8050B44A9
:100E00004EF83C50CCE79DF804501D70029B1D48E5
:100E100088F80040403940334CF83200C4E719F0FC
:100E2000080F0CBF022303238B557FE521494A6835
:100E3000002AC3D06C88B5F804E003E00C314A689E
:100E4000002ABBD00B88A342F8D14B887345F5D15B
:100E5000240A032C0CBF1178098960E7124A022189
:100E6000147054705BE700BF942007400100040039
:100E7000448DFF1FD88CFF1FD98CFF1F0080FF1FE0
:100E8000C02007408800400088200740802007409D
:100E900098200740888CFF1FDC8CFF1F748CFF1F7D
:100EA000458DFF1F508DFF1F488DFF1F848CFF1F36
:100EB000C8004000841F00008C200740B248116A1F
:100EC000AC7804700C0600F19881D9F82820AF495D
:100ED000100600F1DB81D9F83020AC49120600F190
:100EE000D081D9F83820A949130600F1C581D9F875
:100EF0004020A649150600F1BA81D9F84820A34937
:100F0000140600F1AF81D9F85020A049100600F175
:100F1000A481D9F858209D49120600F19981D9F889
:100F200060209A49130600F18E81D9F8682097490C
:100F3000150600F18381D9F870209449140600F158
:100F40007881D9F878209149100600F16D81D9F89F
:100F500080208E49120600F16181D9F888208B49E2
:100F6000130600F15581D9F890208849150600F143
:100F70004981D9F898208549140600F1FF808448FA
:100F8000844A854901908548854D864C0497002305
:100F90000596029580460F4616461D460394306816
:100FA00028B1446800F048FA2046002CF9D100230B
:100FB0003360029B38681A46002342F8253028B176
:100FC000446800F039FA2046002CF9D100223A603A
:100FD000019A98F800301146002241F8042B039A38
:100FE0000191023B4FF0000122F81510032B07D8A6
:100FF000DFE803F05D025D024FF0010388F8003086
:101000000135042D06F1040607F1040708F1010873
:10101000C5D1654C654D2278654B049F059E002126
:10102000100729701A7000F19280624962780A7084
:101030000021C9F83010C9F838101107DFF84C81C9
:101040006ED4A2785C49DFF844810A70002112074F
:10105000C9F85010C9F858104BD4E27857494B4C96
:101060000A7013074FF00001C9F87010C9F8781022
:1010700000F1AE8033780193002283F00105C9F8B6
:101080009020C9F898200021029188468E460A4691
:101090004B48047844F0020C09EBCC030393019B0A
:1010A000002B039B5A600CBF8822C82252E64FF0E7
:1010B000000388F80030A3E7B0F5A06F7FF47EAEA0
:1010C000012300250193DEE740F621229042F7D06C
:1010D00074E66D88002D7FF471AE3A49CDF804E0D6
:1010E000920011440A7822F002020A70CBE7022132
:1010F00015E600F081F9002800F0EB800830324A54
:10110000C8F86400C8F8602000F076F9002800F004
:10111000DA8008302D4AC9F86C00C9F868209CE7CD
:1011200000F06AF9002800F0E0800830264AC8F88C
:101130004400C8F8402000F05FF9002800F0CF809C
:101140000830224AC9F84C00C9F8482079E700F075
:1011500053F9002800F0A58008301B4AC9F8240084
:10116000C9F8202000F048F9002800F094800830E9
:10117000164AC9F82C00C9F8282056E7D1F89C0077
:10118000083800F059F9FAE6508DFF1F0080FF1F64
:101190002C8DFF1FC88CFF1F1C8DFF1F548DFF1F40
:1011A000748CFF1F108FFF1F801F0000458DFF1FD5
:1011B000C4200740C8200740CC200740D02007406B
:1011C000448DFF1FC020074088004000C800400039
:1011D00000F012F9002870D008304F4AC4F884009B
:1011E000C4F8802000F008F9002860D008304B4A8D
:1011F000C9F88C00C9F888203CE7506A083800F02C
:101200001BF962E6D1F89400083800F015F9B0E651
:10121000D1F88C00083800F00FF9A4E6D1F884006A
:10122000083800F009F998E6C86F083800F004F9AA
:101230008DE6486F083800F0FFF882E6C86E08387F
:1012400000F0FAF877E6486E083800F0F5F86CE63A
:10125000C86D083800F0F0F861E6486D083800F015
:10126000EBF856E6C86C083800F0E6F84BE6486C38
:10127000083800F0E1F840E6C86B083800F0DCF808
:1012800035E6486B083800F0D7F82AE6C86A08380F
:1012900000F0D2F81FE62A78C9F8280001322A7037
:1012A000C3E62A78C9F8200001322A705AE72A7862
:1012B000C9F8880001322A70DCE62A78C4F8800078
:1012C00001322A708EE72A78C9F8680001322A7044
:1012D000C3E62A78C8F8600001322A7014E72A7839
:1012E000C9F8480001322A70ABE62A78C8F84000F5
:1012F00001322A701FE740298E4628BF4FF0400E6A
:1013000002EB0E0302930123CEEB01014FEA0E48DC
:1013100000250193BCE600BF88004000C8004000E3
:10132000F8B500F09FFB294B29482A4C2A4F2B4D3A
:10133000DFF8BCC0DFF8BCE0294E00221A605A601A
:101340009A60DA601A615A619A61DA611A625A62C5
:101350009A62DA621A635A639A63DA631A645A64A5
:101360009A64DA641A655A659A65DA651A665A6685
:101370009A66DA661A675A679A67DA67C3F880204E
:101380000168C3F8842041F480210160C3F3072180
:101390002170C3F30740134938701B0E2B70FF23D5
:1013A0008CF80030104D8EF8003010480B7001237F
:1013B000337084F8642070264FF40074102207F80C
:1013C0002C3C2E70046081F8F820F8BD0080FF1FCF
:1013D000348004409C200740B0200740B4200740E0
:1013E000942007401020074049E400E008E100E0B5
:1013F000802007408820074072B60D480268B2FA84
:1014000082F30B2B10DC4FF00041D94022EA01029D
:10141000026062B6074803EBC303DB00C218002179
:10142000C15010465160704762B60020704700BF3F
:101430002087FF1FBC83FF1F0D4B0E4AC31AA2FB60
:1014400003231B090B2B0CD80B4A127852B972B626
:101450000A484FF00041026821FA03F31A43026080
:1014600062B67047064A1278002AF0D0FFF76EB9CC
:10147000BC83FF1F398EE338458DFF1F2087FF1F78
:10148000508DFF1F38B5164D2868E0B1018844889B
:10149000A14213DD03191B7A83B104F10803C218BA
:1014A0000C1B002302E012F8011F21B10133A342FB
:1014B000F9D1204638BD1C46204638BDFFF7BCFF99
:1014C0000020286038BD074B1B780BB9002038BDC1
:1014D0000220FFF71DF928600028D7D1F6E700BFEA
:1014E000608DFF1F508DFF1F0D4B1B78BBB910B5D2
:1014F0000C4C216803F0FF024B883F2B07DC0733BD
:101500000B4401F1470003F8012F8342FBD1402334
:101510000B800120FFF77EF90023236010BD704788
:10152000588DFF1F5C8DFF1F08B5FEF79FFFFEF76C
:10153000A1FF00F001F8FAE738B5224C237803B197
:1015400038BD01232370FFF79DFF70BB00F0E2F868
:1015500040BB00F075F910BB00F008FAE0B90023B9
:101560002370EFF30583002BEAD1EFF3108172B6FD
:10157000154B1868E0B1154C2278CAB945691D6051
:1015800001232370C5B1AA6101B962B60025457770
:10159000836898472570D3E700F0A2FBDFE700F0EF
:1015A0009DFBD9E700F098FBD3E700F09BFBCDE76C
:1015B0000029C5D162B638BD054B1D600029E5D1B3
:1015C000E3E700BF658DFF1F048FFF1F088FFF1F1C
:1015D000008FFF1F30B42948294A2A4B2A4D602426
:1015E000E121047011701B78284C082B30D00A2B95
:1015F0002748284937D00C2B0CBF35223D22122317
:101600002A60236002600B60234B24491B78244A24
:10161000BBB101230B601360224B23491B78234A83
:10162000012B26D9042B0FD9082B1ED9102B94BFC0
:10163000862387230B6013601D4B01221A7030BC78
:1016400070470B601360E7E784230B601360F3E7D8
:1016500000F58E200F490830012213232A602360F1
:1016600002600B60D0E73922F7E785230B60136037
:10167000E2E780230B601360DEE700BF0040074015
:10168000014007402487FF1F08B003400CB003400F
:1016900008B00B400CB00B40678DFF1F20B003401B
:1016A00020B00B402587FF1F24B0034024B00B401F
:1016B000668DFF1F08B5104C08E0236859050DD44E
:1016C00023681A050FD42368DB0411D42368580358
:1016D000F3D5FFF7E1F823685905F1D500F02AF8B2
:1016E00023681A05EFD500F0BBF82368DB04EDD5BD
:1016F00000F04CF9EAE700BF3480044008B5FFF77A
:10170000D9FF00BF014B10221A807047002005400E
:10171000704700BF054A064B10781B78C0B2DBB299
:10172000984238BF4030C01A704700BF6C8DFF1F11
:101730006D8DFF1FF0B4384B1A7912F0300F2CD09A
:1017400072B6997D01F0FF0200293DD062B6334F99
:10175000334938780D78334E1C46C0B2EDB2431C85
:10176000402BE17928BF0023AB4202F1FF32C9B21E
:101770001CBFF154184612F0FF02F0D12A4B1B682F
:10178000C2B23A704BB1A84236BFC5F14005401B0A
:1017900040192728C4BF01221A701F49CA78D2B243
:1017A000150616D452060DD51B4B1B795B0609D5C1
:1017B0001E4B1F491B6800220A7003B11A70164B9A
:1017C0003C22DA70F0BC70474022D9795A7462B674
:1017D000E3E70B791C06E5D5164B174E1C783378DA
:1017E000E4B2DBB29C420ED0144D01E0A3420AD019
:1017F0000133402B28BF00230879E85CC0B2C871D0
:10180000087D0728F2D9DBB2034933700B7918063B
:1018100044BF7C23CB70C5E700A006406C8DFF1F42
:101820006D8DFF1FB08DFF1F688DFF1FF48DFF1F93
:10183000F08DFF1FF88DFF1FF18DFF1F708DFF1FB3
:10184000054A064B10781B78C0B2DBB2984238BF0D
:101850004030C01A704700BF6C8EFF1F018EFF1F03
:10186000F0B4384B1A7912F0300F2CD072B6997D43
:1018700001F0FF0200293DD062B6334F334938787A
:101880000D78334E1C46C0B2EDB2431C402BE179BB
:1018900028BF0023AB4202F1FF32C9B21CBFF15492
:1018A000184612F0FF02F0D12A4B1B68C2B23A7000
:1018B0004BB1A84236BFC5F14005401B401927284F
:1018C000C4BF01221A701F49CA78D2B2150616D4B5
:1018D00052060DD51B4B1B795B0609D51E4B1F49C4
:1018E0001B6800220A7003B11A70164B3C22DA7092
:1018F000F0BC70474022D9795A7462B6E3E70B799D
:101900001C06E5D5164B174E1C783378E4B2DBB2D3
:101910009C420ED0144D01E0A3420AD00133282B83
:1019200028BF00230879E85CC0B2C871087D072889
:10193000F2D9DBB2034933700B79180644BF7C231C
:10194000CB70C5E700B006406C8EFF1F018EFF1FF5
:101950002C8EFF1FFC8DFF1F708EFF1F008EFF1F40
:10196000748EFF1F6D8EFF1F048EFF1F054A064BEE
:1019700010781B78C0B2DBB2984238BF4030C01A32
:10198000704700BF7C8EFF1F7D8EFF1F30B42B4B36
:101990001A7994061FD52A48DA7903782949013340
:1019A0003F2B0978C8BF00238B42D2B203D0264C0C
:1019B000D9B2E2540170254A116861B1244A127803
:1019C000D2B2934236BFC2F140029B1A9B18272B1A
:1019D000C4BF01230B70194AD378DBB2180611D4A7
:1019E0005A060DD5154B1B795B0609D5194B1A49BB
:1019F0001B6800220A7003B11A70104B2C22DA7097
:101A000030BC704711790906EAD5144910480C78A2
:101A10000178C9B28C420DD04A1C272A84BF00210C
:101A20000A460F4D054C98BFD1B2AA5CD2B2E27102
:101A30000170D5E76C21D170D2E700BF00C006402D
:101A40007C8EFF1F7D8EFF1FA88EFF1F788EFF1FCD
:101A5000E98EFF1FEC8EFF1FE88EFF1FF08EFF1F29
:101A6000808EFF1F70B584B072B6194B194D1A489D
:101A7000702241260F2480211A702E701A4604709D
:101A8000197013781B06FCD5144B186862B6144BFA
:101A9000144C984298BF00EB800001A998BF400009
:101AA0000A2200F021F901A92046002311F8012B98
:101AB00001333AB10A2B20F8022FF7D116232370F5
:101AC00004B070BD5B00DBB2237004B070BD00BF1A
:101AD00000000240070002400600024008000240E9
:101AE0007F9698000C88FF1F10B4EFF3108272B637
:101AF000437F33B9017F012907D003290FD0012388
:101B0000437702B962B610BC7047124C2168A1B18C
:101B1000114943610B68836108605861EFE70F4C1E
:101B2000216881B10E4943610B6883610860586187
:101B30000C4B4FF080511960E1E7074B4161816127
:101B400020601860DBE7064B41618161206018600E
:101B5000EEE700BF048FFF1F008FFF1FF48EFF1FF3
:101B6000F88EFF1F04ED00E010B4047F4160022CEA
:101B7000C26002D010BCFFF7B7BF836810BC184723
:101B800070B5EFF3108272B60C4C206880B10C4E29
:101B900000254369236073B19D6102B962B6457740
:101BA00083689847EFF3108272B620680028F0D15E
:101BB00002B962B670BD3360EFE700BFF48EFF1F5D
:101BC000F88EFF1FFFF7DCBF184A30B41468002CF2
:101BD00027D0036821688B420ED2CB1A0021846083
:101BE000C1602360E06010600223037530BC704761
:101BF00011688B42144608D3A2685B1A0360002A5E
:101C0000F6D18260C460A060EEE7D268C2608460F2
:101C1000E060C568CB1A0222A8602360027530BC60
:101C200070478460C4601060DEE700BFFC8EFF1F59
:101C3000F8B5224E34682CB32368002B3AD1204FDC
:101C40001D4604E03468ECB12368002B32D1A36850
:101C500003B1DD6020693360036825751B68BB42F2
:101C600021D1037F4560022BC46020D0FFF73CFFE9
:101C70006368002BE6D023602046FFF7A5FF346899
:101C8000002CE1D1EFF3108372B60E4A00211068E8
:101C9000116003B962B628B18468FFF795FF20464A
:101CA0000028F9D1F8BD224600219847E0E7836873
:101CB0009847DDE7013B2360E4E700BFFC8EFF1F90
:101CC000691B00000C8FFF1F024A13680133136069
:101CD000FFF7AEBF6C8CFF1F704700BF704700BF9F
:101CE000704700BF704700BFF0B44D1E2E46002461
:101CF00000E00134B0FBF2F302FB1300092800F10D
:101D000030078ABF3730F8B2C0B206F8010F184664
:101D1000002BEED10A1953704CB1107815F8016FF1
:101D200028700133E01A834202F80169F5DB0846A6
:101D3000F0BC704770B50F4E0F4D761BB61018BF34
:101D4000002405D0013455F8043B9847A642F9D148
:101D50000A4E0B4D761B00F059F9B61018BF00243F
:101D600006D0013455F8043B9847A642F9D170BD1E
:101D700070BD00BF182000001820000020200000C7
:101D800018200000024B13B1024800F005B870475C
:101D900000000000A51D0000002301461A46184659
:101DA00000F014B838B5074D074C2C1BA41005D013
:101DB000013C55F8043D9847002CF9D1BDE8384066
:101DC00000F02EB900000000000000002DE9F047EF
:101DD000254C2568D5F848410646884692469946DE
:101DE000C4B360681F2817DC431C76B104EB800580
:101DF0000122C5F888A0D4F8881182401143022E30
:101E0000C4F88811C5F808911ED00230636044F808
:101E100020800020BDE8F087144B03B34FF4C87056
:101E2000AFF300800446D0B1D5F84831002780E8F0
:101E30008800C5F8484138460123C4F88871C4F8C1
:101E40008C71002EE1D0D1E7D4F88C110A43C4F88C
:101E50008C21DAE705F5A674C5F84841C1E74FF0D3
:101E6000FF30BDE8F08700BF082000000000000040
:101E70004008FE4340A004404408FE4344A0044000
:101E80000018FE4300C004403000FE433090044080
:101E90003400FE43349004401C18FE431CC0044030
:101EA0001018FE4310C004400818FE4308C0044048
:101EB0000C18FE430CC004400C10FE430CB0044050
:101EC0001010FE4310B004401810FE4318B0044038
:101ED0001C10FE431CB004401410FE4314B0044018
:101EE0000418FE4304C004400010FE4300B0044048
:101EF0000008FE4300A004400408FE4304A0044080
:101F00000C08FE430CA004400808FE4308A004404F
:101F10001418FE4314C004401818FE4318C00440AF
:101F20000410FE4304B004400810FE4308B004400F
:101F30001400FE43149004404C08FE434CA004409F
:101F40000420FE4304D004402410FE4324B0044087
:101F50002010FE4320B004402810FE4328B0044067
:101F60002C10FE432CB004400020FE4300D004405F
:101F70004808FE4348A004401000FE43109004406F
:101F800015191519000100002887FF1F1200000015
:101F9000000200005487FF1F4900000000220100DA
:101FA000A087FF1F21000000002101008687FF1F7E
:101FB0000900000000220000C487FF1F1C00000071
:101FC000002100006687FF1F0900000000030000D9
:101FD0000888FF1F00000000010309043C87FF1F61
:101FE0000000000002030904E087FF1F000000005A
:101FF000030309040C88FF1F00000000000000001C
:1020000000000000000000002888FF1FF8B500BF96
:10201000F8BC08BC9E467047851D000035040000D2
:04202000F8B500BF50
:10202400FFFFFFFF0A04000012011001000000403E
:10203400C01686047502010203010000180354004F
:10204400650065006E007300790064007500690026
:102054006E006F0009024900020100C03209040049
:10206400000203000000092111010001221C0007E5
:10207400058303400001070504034000010904012E
:1020840000020300000009211101000122210007C0
:10209400058103400001070502032000020000003F
:1020A40006C9FF0904A15C7508150026FF009540C8
:1020B4000975810295200976910295040976B10289
:1020C400C000000006ABFF0A0002A101750815005C
:1020D40026FF00954009018102954009029102C042
:1020E40026035400650065006E00730079006400E7
:1020F400750069006E006F002000520061007700D7
:102104004800490044000000040309040C030000D3
:1021140000000000000000000000000000000000BB
:10212400000000000000000000000000148BFF1FEE
:102134007C8BFF1FE48BFF1F0000000000000000E9
:10214400000000000000000000000000000000008B
:10215400000000000000000000000000000000007B
:10216400000000000000000000000000000000006B
:10217400000000000000000000000000000000005B
:10218400000000000000000000000000000000004B
:10219400000000000000000000000000000000003B
:1021A400000000000000000000000000000000002B
:1021B400000000000000000000000000000000001B
:1021C400000000000000000000000000000000000B
:1021D40001000000000000000E33CDAB34126DE6A8
:1021E400ECDE05000B000000000000000000000011
:1021F40000000000000000000000000000000000DB
:1022040000000000000000000000000000000000CA
:1022140000000000000000000000000000000000BA
:1022240000000000000000000000000000000000AA
:00000001FF
