:1000000000180020C1000000CD120000991200006D
:100010009912000099120000991200009912000034
:10002000991200009912000099120000CD120000F0
:10003000CD12000099120000CD12000089120000BC
:10004000CD120000CD120000CD120000CD12000034
:10005000CD120000CD120000CD120000CD12000024
:10006000CD120000CD120000CD120000CD12000014
:10007000AD1800004D1D0000E5220000CD1200006B
:10008000CD120000CD120000CD120000CD120000F4
:10009000CD120000CD120000CD120000CD120000E4
:1000A00035080000CD120000CD120000CD12000076
:1000B000CD120000CD120000CD120000CD120000C4
:1000C00038B501F007F9454A454B1A60454A464B99
:1000D0001A60464A464B1A60464B0822197811426C
:1000E00002D019780A431A70434B2A221A7000234F
:1000F000424A43499A188A4204D24249C9580433B1
:100100001160F5E7404B41491A1F181D00238A4230
:1001100002D21360031CF6E73D493E4A5958101CB1
:1001200099500433C02BF7D100239A083A49920022
:10013000521803211940C9001568FF248C40A543BB
:100140002C1C80258D40291C214301331160202B5C
:10015000EBD1324B8A221860314B1A70314B24227A
:100160005A70A0221A709A799107FCD59A79D5060F
:10017000FCD498790C212B4A01400829F9D103219C
:100180001171402151719A799106FCD59A795506E1
:10019000FCD5254AC02189051160224A2021117011
:1001A00099790C220A400C2AFAD1204A204B1A6075
:1001B000204A214B1A60214B00221A60204B072253
:1001C0001A60204A204B1A6062B600F00BFA02F067
:1001D000EDFB01F085F800F0E3FFFEE7300004F0EE
:1001E00034800440823F0000388004400100000F4A
:1001F0003C80044002D0074000E0074060FDFF1F44
:100200005CFEFF1F382D000060FEFF1F4401002030
:100210000000000000F9FF1F00E400E008ED00E02E
:10022000005006400040064044800440C0000505E0
:1002300004800440BF5D000014E000E018E000E02E
:1002400010E000E00000202020ED00E0FFFFFFFFB5
:10025000FFFFFFFFFFFFFFFFFFFFFFFFFFFFFFFFAE
:10026000FFFFFFFFFFFFFFFFFFFFFFFFFFFFFFFF9E
:10027000FFFFFFFFFFFFFFFFFFFFFFFFFFFFFFFF8E
:10028000FFFFFFFFFFFFFFFFFFFFFFFFFFFFFFFF7E
:10029000FFFFFFFFFFFFFFFFFFFFFFFFFFFFFFFF6E
:1002A000FFFFFFFFFFFFFFFFFFFFFFFFFFFFFFFF5E
:1002B000FFFFFFFFFFFFFFFFFFFFFFFFFFFFFFFF4E
:1002C000FFFFFFFFFFFFFFFFFFFFFFFFFFFFFFFF3E
:1002D000FFFFFFFFFFFFFFFFFFFFFFFFFFFFFFFF2E
:1002E000FFFFFFFFFFFFFFFFFFFFFFFFFFFFFFFF1E
:1002F000FFFFFFFFFFFFFFFFFFFFFFFFFFFFFFFF0E
:10030000FFFFFFFFFFFFFFFFFFFFFFFFFFFFFFFFFD
:10031000FFFFFFFFFFFFFFFFFFFFFFFFFFFFFFFFED
:10032000FFFFFFFFFFFFFFFFFFFFFFFFFFFFFFFFDD
:10033000FFFFFFFFFFFFFFFFFFFFFFFFFFFFFFFFCD
:10034000FFFFFFFFFFFFFFFFFFFFFFFFFFFFFFFFBD
:10035000FFFFFFFFFFFFFFFFFFFFFFFFFFFFFFFFAD
:10036000FFFFFFFFFFFFFFFFFFFFFFFFFFFFFFFF9D
:10037000FFFFFFFFFFFFFFFFFFFFFFFFFFFFFFFF8D
:10038000FFFFFFFFFFFFFFFFFFFFFFFFFFFFFFFF7D
:10039000FFFFFFFFFFFFFFFFFFFFFFFFFFFFFFFF6D
:1003A000FFFFFFFFFFFFFFFFFFFFFFFFFFFFFFFF5D
:1003B000FFFFFFFFFFFFFFFFFFFFFFFFFFFFFFFF4D
:1003C000FFFFFFFFFFFFFFFFFFFFFFFFFFFFFFFF3D
:1003D000FFFFFFFFFFFFFFFFFFFFFFFFFFFFFFFF2D
:1003E000FFFFFFFFFFFFFFFFFFFFFFFFFFFFFFFF1D
:1003F000FFFFFFFFFFFFFFFFFFFFFFFFFFFFFFFF0D
:10040000FFFFFFFFFFFFFFFFFFFFFFFFDEF9FFFF23
:1004100010B5064C2378002B07D1054B002B02D0DA
:10042000044800E000BF0123237010BD5CFEFF1FE5
:1004300000000000382D000008B5084B002B03D049
:100440000748084900E000BF07480368002B03D0B5
:10045000064B002B00D0984708BDC04600000000A6
:10046000382D000060FEFF1F5CFEFF1F0000000033
:1004700008B50D20012100F033F808BD10B5FA24AD
:100480000121A4000D2000F00BF8201C00F090F8D2
:1004900000210D2000F004F8201C00F089F810BDA8
:1004A00010B51A2818D80C2358430C4A8358101832
:1004B0001C7D027A224205D0002901D01A710BE07E
:1004C0001A7209E043681A68002902D003210A431E
:1004D00001E002218A431A6010BDC046082A0000CC
:1004E000F0B51A283DD80C273D1C45431D4A541928
:1004F0006368161C012901D0042912D178433258AF
:100500003018147D007A20431075A22252001A6020
:100510002022042901D1196814E0196891430A1CAA
:100520001EE0AA58247A107DA0431075002902D03D
:100530008A1E012A12D8802252001A60022903D191
:100540001A6803210A430BE003290AD11A68022121
:100550000A431A601A6801218A4301E00422FF322B
:100560001A60F0BD082A000072B60C4B0C491A68DC
:100570000C4B1B68096862B6480104D532219142D0
:10058000894149425B18FA20800043430648821A99
:1005900006484243920D98187047C04618E000E0A4
:1005A00004ED00E078FEFF1FBF5D0000ABAA020073
:1005B00038B5041CFFF7D8FF051C002C0FD0FFF73F
:1005C000D3FF074B401B984206D9013C002C06D0B4
:1005D000FA239B00ED18F2E700F0EAFDEFE738BDE3
:1005E000E70300001D4B8022D20510B51A6080225F
:1005F00012061A601A4B002018601A491A4B1B4A3F
:100600001960282313601A4A1A4C13601A4A13609F
:100610001A4A13601A4A13601A4A136009222260A8
:10062000194C2060194C2160194C2360194C23602F
:10063000194C2260194C20601948016019490B605F
:1006400019490B60194B1A6000F0D6FDC820400014
:10065000FFF7AEFF00F0C8FB10BDC04600E100E0B0
:1006600004800340FFBF0000088003400C8003406B
:1006700014800340008003401C800340248003401A
:100680002C800340348003400490034008900340D2
:100690000C900340149003400090034004A00340DA
:1006A00008A003400CA0034014A0034000A0034096
:1006B000F0B50B4F02223B780A4E1A43D2000A4D86
:1006C000B418606028788824002800D0C824090461
:1006D0000C43B45001225040534028703B70F0BD91
:1006E000E4FEFF1F00F8FF1F5CFFFF1F431E10B555
:1006F000032B0FD872B6084A99008858002807D0F3
:1007000044685B008C50054A01889C5A611A9952D2
:1007100062B600E0002010BDD4FEFF1F3C010020A7
:10072000431E0020032B09D872B6054A9B009B5834
:10073000002B02D001305B68FAE762B67047C04612
:1007400028FFFF1F38B572B60123164A9A18013ADE
:10075000127811071CD5144A5C01A5589900002D88
:1007600005D1131908305860104BA3500AE001243A
:100770002143C9008C58002C0AD153180830586006
:100780000B4B8B500B4B1A78013A1A7062B608E08B
:100790000133052BD9D162B6064B00221A7000F046
:1007A00097FB38BD4C2B000000F8FF1F880040006D
:1007B000C800400052FFFF1F421E10B5032A30D868
:1007C000022380001843174BC0001B1872B6164C4A
:1007D000A05C032809D802F067F814021605083354
:1007E000022011E0083304200EE010489200145853
:1007F0000F4B002C01D1115001E0985841609950E5
:100800000EE0032000E00520A0540A1C08325A60C4
:100810008822180700D5C822098809040A431A60EB
:1008200062B610BD00F8FF1F90FEFF1F28FFFF1FDC
:1008300038FFFF1FF7B5B9480478061CE4B261071A
:100840001DD5B74B1B78002B16D0B64A1378DBB2F8
:10085000002B05D0013BDBB21370002B00D100BE92
:10086000B14A1378DBB2002B06D0013BDBB2137028
:10087000002B01D100F074FCA84A04231370082552
:10088000221C2A4000D146E2A84BA94C1B78DBB2BF
:100890001E099A08002E00D0CFE1D50065192B68FB
:1008A0006A689806000F01380C2800D9C2E102F0EE
:1008B00005F87F017F01C101C101C101C101C10171
:1008C000C1019E01C101C101C1010D001368994F11
:1008D000526899493B6029607A609848984F9949D5
:1008E000002501229BB23D602561A56102708B420B
:1008F00018D8D021C9008B4200D3DFE0812191407C
:100900008B4200D1B9E006D8802B00D1A0E0822B29
:1009100000D1A2E0E8E08C4A934200D1BDE0A022E1
:10092000D20014E0902109018B4215D00AD8882109
:1009300009018B4200D0D7E0794B844C1B78161C00
:100940002370D6E0824A934200D12EE1814A0026EC
:10095000934200D1CCE0C7E0764F714BBA781A7061
:100960006319186A000603D5586A083800F0B0FA0F
:100970000835802DF4D100252E1C774FE85900282A
:1009800005D04168019100F0A3FA0198F7E778518A
:10099000724B734FE850E859002805D04268019225
:1009A00000F096FA0198F7E76E4B6F4AE850730033
:1009B000D0526E4B7851F05C0238032807D801F012
:1009C00073FF02040204002200E001229A5501365E
:1009D0000435042ED1D1664F00233B700125654BB1
:1009E000EA18654B9200EB18013B1B78137018074F
:1009F00020D500F04FFA6B01002805D0E21808302E
:100A000050605E4AE25003E0E0503B7801333B70B7
:100A100000F040FA0122AB001343DB00002805D0B0
:100A20004549E21808305060E15003E0E0503B785F
:100A300001333B70AB0002221A43D2000026A650BD
:100A40000322134393400135E650052DC7D14FE0F3
:100A50003E4C0226257065704BE0364FBB88042B58
:100A600042D83A4C46489B00257065701B181B788D
:100A7000022633423DD022703BE02E4D7F23AA88D0
:100A80001340042B30DC6E88002E2DD13C4F9B0090
:100A9000DB191A7802218A430EE0264D7F23AA88AB
:100AA0001340042B20DC6E88002E1DD1344F9B0098
:100AB000DB191A7802210A431A7019E01D4D314BD7
:100AC0006A88A9885C68002C0ED01888904209D1E9
:100AD0005888884206D1120A032A01D1267808E0F4
:100AE0001E8906E00C33EDE7254B0F221A705CE0FF
:100AF000341C104FFB889E4200D91E1C371E402F0D
:100B000000D94027201C391CFFF7D2FDE419F61B41
:100B10003AD1351C402F3BD047E0C04680200740EB
:100B20005BFFFF1FE5FEFF1F6CFFFF1F90200740CC
:100B300000F8FF1F48FFFF1FC80040005CFFFF1FB9
:100B40007CFEFF1F810600000203000053FFFF1F11
:100B500021090000210A0000D4FEFF1F80FEFF1FB4
:100B600028FFFF1F38FFFF1F3C01002090FEFF1FE2
:100B700052FFFF1F30C801104C2B000088004000BE
:100B8000C0200740502B00004025B54200D9351C3D
:100B9000201C291CFFF78CFD6419761B01D1402D08
:100BA00003D1784D784B2C601E800122774B40E0BA
:100BB000774B78491F688F4216D15968764B994216
:100BC00012D11378A92B0FD15378452B0CD19378E0
:100BD000C22B09D1D3786B2B06D1704B0020052294
:100BE000011C1A70FFF764FD6D4B2B6022E0654F0E
:100BF0003D68002D13D064480688341E402C00D96F
:100C00004024211C281CFFF753FD361B5E49B6B259
:100C10000E80002E01D1402C00D12E193E605C4B7D
:100C2000A0221988D200914204D100225A709A78E9
:100C30005C4B1A700122554B61E0D200A418606829
:100C4000013E0838F6B22B4036D000F041F9564943
:100C5000B0004258554B002A1BD055684550111C16
:100C6000985D0831616003280BD801F01DFE020475
:100C70000608032104E0022102E0052100E004212E
:100C800099558823270700D5C823128812041343D7
:100C90003CE0985D032808D801F006FE39390204CB
:100CA000002200E001229A5531E02C40624262416C
:100CB0000324A41A9C552AE062880280002A20D0CE
:100CC0003B4D43804360B3005F593A49002F01D147
:100CD000585101E0CD586860C850374B7600F15A42
:100CE0005218F25200F0D6F8002804D008306060A4
:100CF00020070AD507E0314B20601A7801321A70BC
:100D000005E02C4201D0264B00E02D4B23602D49FD
:100D100008230B708FE5012004421ED01B490223DB
:100D20000B70294B264C1A70284B294D1C609C6077
:100D3000284C1A61DC609A615D60274B0D241C70A1
:100D4000264CFF232370174C33702270244A1370F3
:100D5000244B9F221A70087013E063B2002B04DA50
:100D60001D4B0D221A708023337002231C4204D0C5
:100D70001A4A1178C9B21170337010231C4200D086
:100D80003370F7BD7CFEFF1F50FFFF1F942007400C
:100D900048FFFF1F2109000301000400E5FEFF1FBB
:100DA000C80040009820074028FFFF1F90FEFF1F4B
:100DB000D4FEFF1F80FEFF1F3C01002052FFFF1FDB
:100DC0008800400080200740E4FEFF1F00F8FF1F5E
:100DD00094FEFF1FE8FEFF1FC02007408820074049
:100DE0008C2007408420074010B501F0F1FA002262
:100DF0001A4B0021D150981808324160882AF7D147
:100E0000174A80201468C00220431060180A154A4F
:100E1000C0B21070180C144AC0B21070134A1B0EE6
:100E20001370134AFF231370124A13481370134AA6
:100E30001370012202701248017012490A70124A9E
:100E4000116899430B1C70210B4313600F4B8022D8
:100E500052041A600E4B10221A7010BD00F8FF1FCA
:100E6000348004409C200740B0200740B420074055
:100E7000802007408820074094200740102007402A
:100E8000002107408420074018E400E000E100E072
:100E90000821074038B572B60B4C2568281C01F0B4
:100EA00067FD0B2802D962B600200CE080231B06E8
:100EB000C3409D43256062B648235843034B18182E
:100EC00000230360436038BD60FDFF1F00FAFF1F71
:100ED00010B5041C0E484821201A01F0F9FC0B281B
:100EE00015D80C4B1B78002B07D00B4B1B78002B15
:100EF00003D0201CFFF726FC09E072B68022074BC6
:100F00001206C240101C1A681043186062B610BD69
:100F100000FAFF1F52FFFF1F5BFFFF1F60FDFF1F57
:100F200070B5144B1B78002B20D0134C2368261C63
:100F3000002B03D10220FFF7D9FB20602068002896
:100F400014D04388C218157A002D0BD002880133C3
:100F5000934204D3FFF7BCFF0023336000E04380DB
:100F6000281C05E0FFF7B4FF2560DAE70125684299
:100F700070BDC0465BFFFF1F68FFFF1F38B50E4BFB
:100F80001B78002B13D00D4C2368002B03D10220BB
:100F9000FFF7ACFB20602068002808D04388C31806
:100FA0001D7A002D06D1FFF793FF2560E7E70120AA
:100FB000404200E0281C38BD5BFFFF1F68FFFF1F99
:100FC00038B5124D2B68002B04D028680024028805
:100FD000438811E00E4B1B78002B03D00220FFF753
:100FE00085FB28602C68002CEFD10DE0C118091991
:100FF000097A002903D00134E1189142F6DB002C74
:1010000002D1FFF765FF2C60201C38BD68FFFF1F71
:101010005BFFFF1FF7B5344D0123071C0C1C2B7021
:10102000002C5DD0314E306800282BD1304A01921F
:10103000304B1B78DBB2002B1AD00120FFF770FB7E
:10104000052806D9019B2C4A013B0193002B09D1AD
:101050000BE001232B70FFF71DFF244A10600028CE
:10106000F0D00FE01378002B06D00123137000237B
:1010700001202B70404235E02B7000F099F80123DD
:101080002B70D5E71C4B002231681A704B8840202A
:10109000C01A0094844200D90090181C0830081827
:1010A000019000981B184B80241A0023009A934249
:1010B00004D0FA5C0198C2540133F7E74A88FF185C
:1010C0000E4B3F2A02D805221A70A9E740220020C1
:1010D0000A8018700120FFF76FFB002232609FE743
:1010E0002C70201CFEBDC0465DFFFF1F60FFFF1F70
:1010F000B51E00005BFFFF1F64FFFF1F6CFFFF1F9B
:1011000007B56B46D8710733181C0121FFF782FF22
:101110000EBDFFFF38B50F4B1B78002B19D00E4CBE
:101120002168002915D04A88002A12D00B480023D4
:10113000037098183F2805DC8818C0180025057230
:101140000133F6E740230B800120FFF735FB002336
:10115000236038BD5BFFFF1F60FFFF1F6CFFFF1F99
:1011600038B50D4B1B78DBB2002B13D10B4801684F
:10117000041C4A8898183F2805DC8818C0180025E8
:1011800005720133F6E740230B800120FFF714FBC3
:101190000023236038BDC0465DFFFF1F60FFFF1FB7
:1011A00008B5FFF765F9FFF769F900F001F8FAE70C
:1011B00010B5104C2378002B1BD101232370FFF7AF
:1011C000FFFE002801D001F038FB00F0FDFA0028F6
:1011D00001D001F0C7F900F047FD002801D001F06F
:1011E00061FA01F00DF8002801D001F0FBFA0023AC
:1011F000237010BD6DFFFF1F1B4B1C4A19781C4B41
:10120000082901D1002102E00A2903D13821116007
:10121000132206E00C2901D1342100E03C211160A9
:1012200012221A60134B1A78134B002A01D00022A5
:1012300000E001221A60114B1A78114B012A01D8E3
:1012400080220CE0042A01D8842208E0082A01D870
:10125000852204E0102A01D8862200E087221A6045
:10126000084B01221A70704764FDFF1F08B003404D
:101270000CB003406FFFFF1F20B0034065FDFF1F50
:1012800024B003406EFFFF1F024B1A6801321A6040
:101290007047C04678FEFF1F10B50B4C23685A03F9
:1012A00001D5FFF7C7FA23685A0501D500F0FEFA09
:1012B00023681A0501D500F049FD2368DA04ECD54E
:1012C00001F010F8E9E7C0463480044008B5FFF7A4
:1012D000E3FFFFFF014B00221A60704700810440CA
:1012E0007047FFFFEFF31380002821D1EFF3108246
:1012F000002A1FD1EFF30583002B0FD0101C0F2BFA
:101300000ED91A1C103A92080B4903209200034090
:10131000521883401068D840C0B201E080204000DD
:10132000EFF31182002A05D0824203D2101C01E0A3
:10133000012040427047C04600E400E0264B802276
:101340001968D2000A431A60244A00231370244A01
:101350001370244A1370244A1370244A1370244BC8
:101360001B78032B09D0152B04D0002B08D1214A60
:10137000214B04E01F4A214B01E0214A214B1A6016
:10138000214B1B78042B0BD0052B05D0012B0BD147
:10139000D12292001D4B06E0D12292001C4B02E0AC
:1013A00091221C4B92001A601B4BC204D20E1A7081
:1013B000C0B2002258709A702C22DA70174BFF22AC
:1013C000196891430A1C40210A431A60144B802279
:1013D00052011A607047C04634800440F9FFFF1F75
:1013E00075FFFF1F00000020FAFFFF1F74FFFF1FA3
:1013F000B6FFFF1F1303000040A0044018C00440C4
:10140000130200000490044066FDFF1F44A0044046
:101410001CC004400890044000A006400CE400E01A
:1014200000E100E010B5174B132299789143032295
:1014300002400A43410701D510210A439A700F2246
:1014400010490240042A03D18A79402422438A7138
:101450005A7910218A43084200D00A435A71997977
:1014600010229143840600D51143064A9971C105A3
:1014700006D5537811782020DBB2014311705370E8
:1014800010BDC04600A0064008B5124B1B685A05A7
:101490001ED5114B1B78DBB2002B02D0FFF788FE64
:1014A000F7E70E4A8021490111600D4A0D49D370BA
:1014B0000422FF320A600C490A600C4A13700C4A7D
:1014C00013700C4B1B68002B02D00B4A12781A7158
:1014D00008BDC0463480044074FFFF1F80E100E077
:1014E00000A0064040A0044044A00440F9FFFF1FB4
:1014F00075FFFF1F70FFFF1FB7FFFF1F38B5041CEC
:101500000B4B1D78EDB2002DFAD1201C0121FEF706
:10151000E7FF291C201CFEF7C3FF0C225443054B98
:10152000054AE1581C191160044B227A1A7038BD23
:1015300074FFFF1F082A0000FCFFFF1FF8FFFF1FBA
:1015400030B5002901D080231843224A1378141C97
:1015500098423ED0204A1268550539D57F22134063
:10156000042B0FD004D8012B0FD100221B4B0BE012
:10157000052B04D0182B08D10022194B04E00022BF
:10158000184B01E0184B00221A604423002900D0B8
:1015900060237F220240042A15D006D8012A17D1E1
:1015A000C022920013430D4A11E0052A06D0182AE2
:1015B0000ED18022D2001343094A08E0C0229200D3
:1015C0001343084A03E0802292001343064A136043
:1015D000207030BD66FDFF1F3480044044A00440ED
:1015E00050D004401CC004400890044010B51A4A72
:1015F000137898422ED0194909684C0529D5032B38
:101600000FD004D8002B0FD115490B600CE0152B1F
:1016100004D0192B08D10021124B04E00021124BF9
:1016200001E0124B0021196003280FD004D80028D4
:101630000FD10F490A4B0BE0152804D0192808D107
:101640000C49084B04E00A49074B01E00A49074BE3
:101650001960107010BDC046B6FFFF1F34800440F3
:1016600040A0044054D0044018C0044004900440FA
:1016700013030000130400001302000038B50E4BE2
:101680001A680023510514D50C4C1A2810D80C23C5
:1016900043430B4A0B4D9958D3181B7A2160012103
:1016A0002B70FEF71DFF23682A781A72012300E0D1
:1016B0002360181C38BDC0463480044070FFFF1FF3
:1016C000082A0000B7FFFF1F00207047F8B5214B24
:1016D000071C1B685A053BD51F4B1B68002B02D00B
:1016E0001E4A12781A711E4E002334783F220134AC
:1016F000A2425B415B421C401A4D2B78A3421CD195
:10170000FFF7F0FD402813DC174A13795BB2002B7A
:10171000F2DA2B78002101333F20984249414942B7
:101720000B401249C95CDBB2C9B2D1712B70E3E73F
:10173000FF28E1DDFFF73CFDDEE70C4BFFB21F5554
:101740000B4B01221A70084BE4B2AC223470DA70F1
:10175000F8BDC04634800440FCFFFF1FF8FFFF1FA8
:1017600000000020FAFFFF1F00A0064076FFFF1FC9
:1017700074FFFF1F38B5041C4518AC4204D0207814
:10178000FFF7A4FF0134F8E738BDFFFF08B5044BAD
:101790001B78002B02D0FFF70BFDF8E708BDC04611
:1017A00074FFFF1F064B074A1B781078DBB2C0B2EC
:1017B000834201D33F3000E00138C01A7047C04671
:1017C00000000020FAFFFF1F054B1878054BC0B240
:1017D0001B78DBB2984200D24030C01A7047C04636
:1017E000F9FFFF1F75FFFF1F10B5124B12491A7842
:1017F0000B78D2B2DBB29A4219D001333F240020D9
:101800009C424041404203400C48DCB2C05C0C703A
:101810000B49C0B2096800290BD09A4200D240326D
:10182000D31A1A2B05DC074B1B780B7201E0012041
:10183000404210BDF9FFFF1F75FFFF1FB8FFFF1FDC
:1018400070FFFF1FB7FFFF1F0A4B1A780A4B1B7868
:10185000DBB29A420AD0013300223F219942524121
:1018600052421340054AD05CC0B201E00120404220
:101870007047C046F9FFFF1F75FFFF1FB8FFFF1F2E
:10188000064B1A78064BD2B21A70064B1B68002B17
:1018900002D0054A12781A727047C04675FFFF1FC2
:1018A000F9FFFF1F70FFFF1FB7FFFF1F30B5254A6D
:1018B0001379990612D52449D4790B780020013385
:1018C0003F259D424041404203402048E4B2007819
:1018D000834203D01E48C454DBB20B70D178194C3C
:1018E000C9B24BB2002B1ADA23795BB2002B16DA9D
:1018F000184B19481D780378DBB29D4202D16C2346
:10190000E3700CE0013300243F259D4264416442B2
:101910002340124CE45CDBB2E4B2D4710370402388
:1019200019420ED0117919420BD00D4B00211970BC
:101930000C4B1B688B4202D00B49097819722C237F
:10194000D37030BD00A00640F9FFFF1F75FFFF1FD9
:10195000B8FFFF1F00000020FAFFFF1F76FFFF1FE8
:1019600074FFFF1FFCFFFF1FF8FFFF1F164B8022B5
:10197000196812010A431A60144A00231370144AAA
:1019800014491370144A1370144A1370144A1370D4
:10199000144A1160144AD12189001160134AC1040C
:1019A000C90EC0B21170507093702C23D370104BBD
:1019B000104A19680A408021C9010A431A600E4B77
:1019C000802292011A607047348004407400002025
:1019D00009000020130300007C0000207500002097
:1019E000080000200CB0044010B0044000B00640D5
:1019F0000CE400E0FF00FFFF00E100E010B5174B32
:101A0000132299789143032202400A43410701D5EA
:101A100010210A439A700F2210490240042A03D170
:101A20008A79402422438A715A7910218A430842D4
:101A300000D00A435A71997910229143840600D547
:101A40001143064A9971C10506D5537811782020B3
:101A5000DBB201431170537010BDC04600B00640A8
:101A600008B5124B1B681A051ED5114B1B78DBB24B
:101A7000002B02D0FFF79CFBF7E70E4A802189017B
:101A800011600D4A0D49D3700422FF320A600C49DF
:101A90000A600C4A13700C4A13700C4B1B68002B25
:101AA00002D00B4A12781A7108BDC0463480044037
:101AB0000800002080E100E000B006400CB00440C7
:101AC00010B0044074000020090000200400002031
:101AD0003200002038B5041C0B4B1D78EDB2002DF0
:101AE000FAD1201C0121FEF7FBFC291C201CFEF76B
:101AF000D7FC0C225443054B054AE1581C191160D0
:101B0000044B227A1A7038BD08000020082A000011
:101B100078000020730000207047704738B50E4BE6
:101B20001A680023110514D50C4C1A2810D80C2360
:101B300043430B4A0B4D9958D3181B7A216001215E
:101B40002B70FEF7CDFC23682A781A72012300E07F
:101B50002360181C38BDC0463480044004000020B7
:101B6000082A00003200002000207047F8B5214B01
:101B7000071C1B681A053BD51F4B1B68002B02D0A6
:101B80001E4A12781A711E4E00233478272201341F
:101B9000A2425B415B421C401A4D2B78A3421CD1F0
:101BA000FFF7A0FB402813DC174A13795BB2002B28
:101BB000F2DA2B780021013327209842494149422B
:101BC0000B401249C95CDBB2C9B2D1712B70E3E79B
:101BD000FF28E1DDFFF7ECFADEE70C4BFFB21F5503
:101BE0000B4B01221A70084BE4B2AC223470DA704D
:101BF000F8BDC04634800440780000207300002007
:101C00007C0000207500002000B006400A00002083
:101C10000800002038B5041C4518AC4204D02078D8
:101C2000FFF7A4FF0134F8E738BDFFFF08B5044B08
:101C30001B78002B02D0FFF7BBFAF8E708BDC046BF
:101C400008000020064B074A1B781078DBB2C0B2B0
:101C5000834201D3273000E00138C01A7047C046E4
:101C60007C00002075000020054B1878054BC0B2A1
:101C70001B78DBB2984200D24030C01A7047C04691
:101C8000740000200900002010B5124B12491A7888
:101C90000B78D2B2DBB29A4219D001333F24002034
:101CA0009C424041404203400C48DCB2C05C0C7096
:101CB0000B49C0B2096800290BD09A4200D24032C9
:101CC000D31A1A2B05DC074B1B780B7201E001209D
:101CD000404210BD740000200900002033000020A5
:101CE00004000020320000200A4B1A780A4B1B78AF
:101CF000DBB29A420AD0013300223F21994252417D
:101D000052421340054AD05CC0B201E0012040427B
:101D10007047C046740000200900002033000020F6
:101D2000064B1A78064BD2B21A70064B1B68002B72
:101D300002D0054A12781A727047C0460900002086
:101D400074000020040000203200002030B5254A35
:101D50001379990612D52449D4790B7800200133E0
:101D60003F259D424041404203402048E4B2007874
:101D7000834203D01E48C454DBB20B70D178194C97
:101D8000C9B24BB2002B1ADA23795BB2002B16DAF8
:101D9000184B19481D780378DBB29D4202D16C23A1
:101DA000E3700CE00133002427259D426441644226
:101DB0002340124CE45CDBB2E4B2D47103704023E4
:101DC00019420ED0117919420BD00D4B0021197018
:101DD0000C4B1B688B4202D00B49097819722C23DB
:101DE000D37030BD00B00640740000200900002010
:101DF000330000207C000020750000200A00002035
:101E0000080000207800002073000020204B802272
:101E1000196852010A431A601E4A002313701E4AB1
:101E200013701E4A13701E4A13701E4A13701E4B05
:101E30001B78062B04D0072B05D11C4A1C4B01E054
:101E40001A4A1C4B1A601C4B1B78082B05D0142B0C
:101E500007D1D1229200194B02E0D122184B9200F7
:101E60001A60184BC204D20E1A70C0B20022587009
:101E70009A702C22DA70144B144A19680A40802197
:101E8000C9030A431A60124B8022D2011A607047BC
:101E900034800440F000002085000020F80000207D
:101EA000F10000208400002067FDFF1F13030000E5
:101EB00008C0044010C0044068FDFF1F14C0044067
:101EC0000CC0044000C006400CE400E0FFFF00FF2F
:101ED00000E100E010B5174B1322997891430322DB
:101EE00002400A43410701D510210A439A700F228C
:101EF00010490240042A03D18A79402422438A717E
:101F00005A7910218A43084200D00A435A719979BC
:101F100010229143840600D51143064A9971C105E8
:101F200006D5537811782020DBB20143117053702D
:101F300010BDC04600C0064008B5124B1B68DA044D
:101F40001ED5114B1B78DBB2002B02D0FFF730F906
:101F5000F7E70E4A8021C90111600D4A0D49D3707F
:101F60000422FF320A600C490A600C4A13700C4AC2
:101F700013700C4B1B68002B02D00B4A12781A719D
:101F800008BDC046348004408400002080E100E0A9
:101F900000C0064008C004400CC00440F00000200F
:101FA0008500002080000020AE00002038B5041C11
:101FB0000B4B1D78EDB2002DFAD1201C0121FEF74C
:101FC0008FFA291C201CFEF76BFA0C225443054B98
:101FD000054AE1581C191160044B227A1A7038BD69
:101FE00084000020082A0000F4000020EF000020F8
:101FF00030B5002901D080231843154A1378141CEA
:10200000984224D0134A1268D5041FD57F2213406A
:10201000082B04D0142B05D100220F4B01E00F4BED
:1020200000221A604423002900D060237F2202404E
:10203000082A06D0142A09D1C02292001343064A66
:1020400003E0C02292001343044A1360207030BDA5
:1020500068FDFF1F3480044014C004400CC00440DD
:1020600010B50F4A1378984218D00E490968CC046D
:1020700013D5062B04D0072B05D100210A4B01E014
:102080000A4B00211960062804D0072805D1084909
:10209000054B01E00649054B1960107010BDC046A4
:1020A00067FDFF1F3480044008C0044010C0044096
:1020B0001303000038B50E4B1A680023D10414D561
:1020C0000C4C1A2810D80C2343430B4A0B4D99583B
:1020D000D3181B7A216001212B70FEF701FA2368C7
:1020E0002A781A72012300E02360181C38BDC0460C
:1020F0003480044080000020082A0000AE00002048
:1021000000207047F8B5214B071C1B68DA043BD54B
:102110001F4B1B68002B02D01E4A12781A711E4EEC
:102120000023347827220134A2425B415B421C40E9
:102130001A4D2B78A3421CD1FFF7D4F8402813DCAA
:10214000174A13795BB2002BF2DA2B7800210133A6
:1021500027209842494149420B401249C95CDBB2F1
:10216000C9B2D1712B70E3E7FF28E1DDFFF720F85A
:10217000DEE70C4BFFB21F550B4B01221A70084BC8
:10218000E4B2AC223470DA70F8BDC046348004404A
:10219000F4000020EF000020F8000020F1000020F3
:1021A00000C00640860000208400002038B5041CD2
:1021B0004518AC4204D02078FFF7A4FF0134F8E7BB
:1021C00038BDFFFF08B5044B1B78002B02D0FEF78B
:1021D000EFFFF8E708BDC04684000020064B074A21
:1021E0001B781078DBB2C0B2834201D3273000E005
:1021F0000138C01A7047C046F8000020F1000020E6
:10220000054B1878054BC0B21B78DBB2984200D260
:102210004030C01A7047C046F00000208500002002
:1022200010B5124B12491A780B78D2B2DBB29A422F
:1022300019D001333F2400209C42404140420340DA
:102240000C48DCB2C05C0C700B49C0B209680029B4
:102250000BD09A4200D24032D31A1A2B05DC074B1E
:102260001B780B7201E00120404210BDF0000020FD
:1022700085000020AF00002080000020AE0000207C
:102280000A4B1A780A4B1B78DBB29A420AD0013308
:1022900000223F219942524152421340054AD05CEC
:1022A000C0B201E0012040427047C046F00000206B
:1022B00085000020AF000020064B1A78064BD2B2F2
:1022C0001A70064B1B68002B02D0054A12781A724E
:1022D0007047C04685000020F000002080000020EC
:1022E000AE00002030B52E4A1379990624D52D4929
:1022F000D4790B78002001333F259D424041404274
:1023000003402948E4B20078834203D02748C454EC
:10231000D8B208702649086800280DD025490978E8
:10232000C9B28B4201D35B1A01E05B1A4033272B01
:1023300002DD214B1B780371D178194CC9B24BB225
:10234000002B1ADA23795BB2002B16DA1B4B1948E3
:102350001D780378DBB29D4202D16C23E3700CE060
:102360000133002427259D42644164422340144CDC
:10237000E45CDBB2E4B2D4710370402319420ED0A6
:10238000117919420BD00F4B002119700E4B1B68AD
:102390008B4202D00D49097819722C23D37030BDBD
:1023A00000C00640F000002085000020AF000020A3
:1023B00080000020F1000020AE000020F800002086
:1023C0008600002084000020F4000020EF000020A0
:1023D0001FB572B6154B70221A70154A4121117043
:1023E000144A0F21117080221A701A7852B2002AF2
:1023F000FBDA114B186862B6104B984201D80A23D9
:10240000584301AC211C0A2200F026FA0023E15CAB
:102410000B4A002905D058001018013341800A2BBF
:10242000F5D101335B0013701FBDC04600000240B0
:102430000700024006000240080002407F96980014
:1024400044FEFF1F08B50368C9B21B68984708BD62
:1024500008B50368C9B21B68984708BD08B503688A
:10246000C9B21B68984708BD08B50368C9B21B68A4
:10247000984708BD08B5044B4808C01800F028FA72
:10248000FEF75CFF08BDC046C0C62D0010B5064B68
:102490004808C018141C00F01BFAFEF74FFF201C60
:1024A000FEF7C0FF10BDC046C0C62D0008B5FEF740
:1024B000EBFF08BD08B5081CFFF720F808BD08B5FC
:1024C000081CFFF793F808BD08B5081C111CFFF79E
:1024D00037F808BD08B5081CFFF7D0F8431E98412F
:1024E000C0B208BD08B5081CFFF7EEF8431E9841BE
:1024F000C0B208BD08B5FFF767F908BD08B5FFF71A
:10250000A3F908BD08B5FFF76FF908BD08B5FFF7D7
:102510003DF908BD08B5FFF7B3F908BD08B5FFF7E9
:1025200041F908BD08B5081CFFF7D0F8012008BD27
:1025300008B5081CFFF7CAF8012008BD10B5081C33
:10254000141C111CFFF716F9201C10BD38B5081C0F
:102550000D1C00F051FA041C211C281CFFF70AF97D
:10256000201C38BD7047FFFF044B00221A711A73FC
:10257000FA21034A890099601A607047FC00002024
:10258000E02B000008B50368C9B21B68984708BD76
:1025900008B50368C9B21B68984708BD08B5036849
:1025A000C9B21B68984708BD08B50368C9B21B6863
:1025B000984708BD08B5044B4808C01800F088F9D2
:1025C000FFF7D4F908BDC04660E3160010B5064B0E
:1025D0004808C018141C00F07BF9FFF7C7F9201C4D
:1025E000FFF70CFA10BDC04660E3160008B5FFF710
:1025F00037FA08BD08B5081CFFF76CFA08BD08B526
:10260000081CFFF78AFA08BD08B5081C111CFFF763
:1026100083FA08BD08B5081CFFF780FA431E9841ED
:10262000C0B208BD08B5081CFFF79EFA431E9841CA
:10263000C0B208BD08B5FFF717FB08BD08B5FFF726
:1026400053FB08BD08B5FFF71FFB08BD08B5FFF732
:10265000EDFA08BD08B5FFF763FB08BD08B5FFF745
:10266000F1FA08BD08B5081CFFF780FA012008BD83
:1026700008B5081CFFF77AFA012008BD10B5081C40
:10268000141C111CFFF7C6FA201C10BD38B5081C1D
:102690000D1C00F0B1F9041C211C281CFFF7BAFA2C
:1026A000201C38BD7047FFFF044B00221A711A73BB
:1026B000FA21034A890099601A6070470C010020D2
:1026C000402C000008B50368C9B21B68984708BDD4
:1026D00008B50368C9B21B68984708BD08B5036808
:1026E000C9B21B68984708BD08B50368C9B21B6822
:1026F000984708BD08B5044B4808C01800F0E8F832
:10270000FFF784FB08BDC04660E3160010B5064B1A
:102710004808C018141C00F0DBF8FFF777FB201CFA
:10272000FFF7D8FB10BDC04660E3160008B5FFF701
:1027300003FC08BD08B5081CFFF738FC08BD08B548
:10274000081CFFF78DFC08BD08B5081C111CFFF71D
:102750004FFC08BD08B5081CFFF7ACFC431E9841B0
:10276000C0B208BD08B5081CFFF7CAFC431E98415B
:10277000C0B208BD08B5FFF743FD08BD08B5FFF7B7
:102780007FFD08BD08B5FFF74BFD08BD08B5FFF795
:1027900019FD08BD08B5FFF78FFD08BD08B5FFF7A7
:1027A0001DFD08BD08B5081CFFF7ACFC012008BDE5
:1027B00008B5081CFFF7A6FC012008BD10B5081CD1
:1027C000141C111CFFF7F2FC201C10BD38B5081CAE
:1027D0000D1C00F011F9041C211C281CFFF7E6FC5D
:1027E000201C38BD7047FFFF044B00221A711A737A
:1027F000FA21034A890099601A6070471C01002081
:10280000A02C000008B5FEF7DBFB08BD08B5FEF7FD
:1028100087FB08BD08B5FEF7B1FB08BD08B5FEF79C
:1028200079FC08BD08B5081CFEF76AFC08BD08B5B0
:10283000081C111CFEF7EEFB08BD7047044B00227C
:102840001A711A73FA21034A890099601A60704755
:102850002C010020002D0000F8B5061C0D1C171CD3
:102860000024301C391C00F077F8092901D83031D8
:1028700000E03731C9B22955301C391C00F028F866
:10288000061E01D00134ECE72B1958702B1C5A1B83
:10289000A24206DA1A78295D19702A550133013CE3
:1028A000F5E7281CF8BDFFFF02B47146490849004E
:1028B000095C49008E4402BC7047C04603B47146AF
:1028C000490840004900095A49008E4403BC70473A
:1028D000002934D00123002210B488422CD30124D3
:1028E0002407A14204D2814202D209011B01F8E768
:1028F000E400A14204D2814202D249005B00F8E721
:10290000884201D3401A1A434C08A04202D3001B4C
:102910005C0822438C08A04202D3001B9C0822437F
:10292000CC08A04202D3001BDC082243002803D0BD
:102930001B0901D00909E3E7101C10BC70470028EF
:1029400001D00020C04307B4024802A14018029001
:1029500003BDC046190000000029F0D003B5FFF701
:10296000B9FF0EBC4243891A1847C0467047C0469B
:102970001C2101231B04984201D3000C10391B0AAF
:10298000984201D3000A08391B09984201D3000973
:10299000043902A2105C40187047C04604030202CA
:1029A00001010101000000000000000070B50E4BA5
:1029B0000E4D0024ED1AAD101E1CAC4204D0A30035
:1029C000F35898470134F8E700F0A6F9084B094D91
:1029D0000024ED1AAD101E1CAC4204D0A300F35825
:1029E00098470134F8E770BD242D0000242D000025
:1029F000242D0000382D00000023C25C0133002A82
:102A0000FBD1581E7047FFFF420000F840A0044071
:102A100001000000420000F844A004400200000051
:102A2000C00000F800C0044001000000000000F8F1
:102A30000490044002000000000000F808900440E8
:102A400004000000C00000F81CC00440800000002A
:102A5000C00000F810C0044010000000C00000F8E2
:102A600008C0044004000000C00000F80CC004408E
:102A700008000000800000F80CB0044008000000CE
:102A8000800000F810B0044010000000800000F842
:102A900018B0044040000000800000F81CB0044062
:102AA00080000000800000F814B004402000000006
:102AB000C00000F804C0044002000000800000F8DC
:102AC00000B0044001000000400000F800A00440F5
:102AD00001000000400000F804A0044002000000D3
:102AE000400000F80CA0044008000000400000F87E
:102AF00008A0044004000000C00000F814C0044016
:102B000020000000C00000F818C004404000000091
:102B1000800000F804B0044002000000800000F8CB
:102B200008B0044004000000020100F850D0044046
:102B300010000000020100F854D004402000000002
:102B4000030100F878D00440400000001519151961
:102B50000001000069FDFF1F1200000000020000DC
:102B600094FDFF1F4900000000220100DDFDFF1F52
:102B70002100000000210100C6FDFF1F0900000028
:102B800000220000FEFDFF1F1C00000000210000CD
:102B9000A6FDFF1F090000000003000040FEFF1F0C
:102BA00000000000010309047CFDFF1F000000007D
:102BB000020309041AFEFF1F0000000003030904BA
:102BC00044FEFF1F000000000000000000000000A5
:102BD00000000000FFFFFFFF0000000000000000F9
:102BE000252500003D250000F524000005250000F6
:102BF000FD2400000D250000752400008D24000038
:102C0000AD240000B5240000BF240000C92400004A
:102C1000D5240000E5240000152500001D25000036
:102C200045240000512400005D24000069240000B8
:102C30004D250000312500000000000000000000CC
:102C4000652600007D260000352600004526000090
:102C50003D2600004D260000B5250000CD250000D2
:102C6000ED250000F5250000FF25000009260000E5
:102C70001526000025260000552600005D260000D0
:102C800085250000912500009D250000A925000054
:102C90008D260000712600000000000000000000EA
:102CA000A5270000BD27000075270000852700002C
:102CB0007D2700008D270000F52600000D2700006D
:102CC0002D270000352700003F270000492700007E
:102CD0005527000065270000952700009D2700006C
:102CE000C5260000D1260000DD260000E9260000F0
:102CF000CD270000B1270000000000000000000008
:102D0000252800002F280000052800000D280000BD
:102D1000152800001D280000F8B5C046F8BC08BC06
:102D20009E4670473904000069250000A92600006E
:082D3000E92700003D28000026
:102D3800FFFFFFFF0A04010708120101010000005C
:102D480040C0168604000201020301001803540063
:102D5800650065006E007300790064007500690005
:102D68006E006F0009024900020100C03209040028
:102D7800000203000000092111010001221C0007C4
:102D8800058303400001070504034000010904010D
:102D9800000203000000092111010001222100079F
:102DA8000581034000010705020320000206C9FF50
:102DB8000904A15C7508150026FF00954009758176
:102DC8000295200976910295040976B102C006ABF6
:102DD800FF0A0002A1017508150026FF00954009A9
:102DE800018102954009029102C026035400650042
:102DF80065006E00730079006400750069006E005C
:102E08006F0020005200610077004800490044002C
:102E1800040309040C030000000000000000000087
:0C2E28000000000000000000000000009E
:00000001FF
