:1000000000800020BD01000081130000811300006A
:100010008113000081130000811300004D130000C4
:100020004D1300004D1300004D130000811300001C
:10003000811300004D130000811300003D130000E8
:100040008113000081130000811300008113000060
:100050008113000081130000811300008113000050
:100060008113000081130000811300008113000040
:100070008113000081130000811300008113000030
:100080008113000081130000811300008113000020
:100090008113000081130000811300008113000010
:1000A0008113000081130000811300008113000000
:1000B00081130000811300008113000081130000F0
:1000C00081130000811300008113000081130000E0
:1000D00081130000811300008113000081130000D0
:1000E00081130000811300008113000081130000C0
:1000F00081130000050F000081130000ED1F0000B8
:10010000811300008D120000811300008113000094
:10011000811300008113000081130000811300008F
:10012000811300008113000081130000811300007F
:10013000811300008113000081130000811300006F
:10014000811300008113000081130000811300005F
:100150007D22000095220000AD220000C522000093
:1001600081130000E11500008113000081130000DD
:10017000811300008113000081130000811300002F
:10018000811300008113000081130000811300001F
:10019000811300008113000081130000310500006D
:1001A0008105000009060000C5060000490700009F
:1001B00081130000811300005D2100004F4B4CF2C1
:1001C000205210B51A804DF628121A8000BF00BFC9
:1001D00001F0DAF84A4B4FF010621A60494A9A600F
:1001E000494ADA60494B1A6812F4807204D14849CE
:1001F0000A604FF4A8521A60464B1A7802F00802BF
:10020000D2B21AB11A7842F008021A700023424A98
:100210004248434C02E019599950043399188142DD
:10022000F9D3404B404A002101E043F8041B9342BC
:10023000FBD33E4B00221A603D4B3E4A802103F81F
:10024000011B9342FBD13C4B0A221A703B4B2422E8
:100250001A70A02203F8012C394A137803F0020324
:10026000DBB2002BF9D0364A137803F01003DBB26F
:10027000002BF9D1324A137803F00C03082BFAD182
:10028000304B03221A7040225A702D4A137803F023
:100290002003DBB2002BF9D0294A137803F0400386
:1002A000DBB2002BF9D0284A284B1A60284B2022B9
:1002B0001A70234A137803F00C030C2BFAD1254B48
:1002C00002221A60244A43F8442C244B4BF67F3216
:1002D0001A60072243F8042C62B600F0CDFA0C4BEA
:1002E0001B68DC0702D51E4800F046FA02F052F9FE
:1002F00001F050F802F0F4F8FEE700BF0E200540D0
:1003000030800440823F04000100002B10D00340E5
:1003100014D0034002D007404084FF1F448AFF1FCF
:10032000F0310000448AFF1F2C8EFF1F08ED00E013
:1003300000E400E05FE400E00050064001400640B9
:10034000064006400440064000000311448004407B
:100350000040064048800440C010050014E000E062
:10036000370A1053FFFFFFFFFFFFFFFFFFFFFFFFF5
:10037000FFFFFFFFFFFFFFFFFFFFFFFFFFFFFFFF8D
:10038000FFFFFFFFFFFFFFFFFFFFFFFFFFFFFFFF7D
:10039000FFFFFFFFFFFFFFFFFFFFFFFFFFFFFFFF6D
:1003A000FFFFFFFFFFFFFFFFFFFFFFFFFFFFFFFF5D
:1003B000FFFFFFFFFFFFFFFFFFFFFFFFFFFFFFFF4D
:1003C000FFFFFFFFFFFFFFFFFFFFFFFFFFFFFFFF3D
:1003D000FFFFFFFFFFFFFFFFFFFFFFFFFFFFFFFF2D
:1003E000FFFFFFFFFFFFFFFFFFFFFFFFFFFFFFFF1D
:1003F000FFFFFFFFFFFFFFFFFFFFFFFFFFFFFFFF0D
:10040000FFFFFFFFFFFFFFFFFFFFFFFFFEFFFFFFFD
:1004100008B548F64420074BC1F6FF701B1A062B9F
:1004200000D808BD40F20003C0F20003002BF8D052
:100430009847F6E7478AFF1F08B548F6442048F674
:100440004423C1F6FF70C1F6FF731B1A9B1003EB28
:10045000D373591000D108BD40F20002C0F200026F
:10046000002AF8D09047F6E710B548F64424C1F6C4
:10047000FF74237873B9FFF7CBFF40F20003C0F29B
:1004800000032BB143F2F010C0F20000AFF3008084
:100490000123237010BD00BF08B540F20003C0F275
:1004A00000034BB143F2F01048F64821C0F20000BF
:1004B000C1F6FF71AFF3008048F64420C1F6FF702B
:1004C00003682BB140F20003C0F2000303B1984768
:1004D000BDE80840FFF7B0BF0D20012100F07CB956
:1004E00008B501210D2000F057F94FF47A7000F0A3
:1004F000ADF90D20002100F04FF94FF47A70BDE8FE
:10050000084000F0A3B9FFFF084B4FF400021A6047
:100510004FF080721A604FF000721A604FF08062E4
:100520001A604FF000621A60704700BF08E100E0F7
:10053000114B10B51C68E0041C6004D50F4BDA6841
:100540000AB1DB689847A10404D50C4B1A690AB1BB
:100550001B699847A20604D5084B1A6E0AB11B6E98
:100560009847E30606D5054BD3F8842012B1D3F89B
:100570008430984710BD00BFA0900440608AFF1FE0
:100580001F4B10B51C68E0031C6004D51D4B1A6896
:100590000AB11B689847A10304D51A4B5A680AB1DF
:1005A0005B689847E20704D5164B1A6C0AB11B6CBE
:1005B0009847A30704D5134B5A6C0AB15B6C984754
:1005C000200704D50F4B9A6C0AB19B6C98476107C2
:1005D00004D50C4BDA6C0AB1DB6C9847220304D5C6
:1005E000084B5A6E0AB15B6E9847630306D5054BFC
:1005F000D3F8802012B1D3F88030984710BD00BFE7
:10060000A0A00440608AFF1F2C4B10B51C68200777
:100610001C6004D52A4B5A6A0AB15B6A9847E10606
:1006200004D5274B9A6A0AB19B6A9847620604D59B
:10063000234BDA6A0AB1DB6A9847230604D5204BBC
:100640001A6B0AB11B6B9847A00604D51C4B5A6B5A
:100650000AB15B6B9847E10704D5194BDA6B0AB115
:10066000DB6B9847A20704D5154B9A6D0AB19B6DB9
:100670009847630704D5124BDA6D0AB1DB6D9847D2
:10068000A00504D50E4BDA6E0AB1DB6E9847E10582
:1006900004D50B4B1A6F0AB11B6F9847620504D53E
:1006A000074B5A6F0AB15B6F9847230504D5044B7B
:1006B0009A6F0AB19B6F984710BD00BFA0B004406D
:1006C000608AFF1F1E4B10B51C68E0071C6004D534
:1006D0001C4B9A680AB19B689847210604D5194BB0
:1006E0005A690AB15B699847E20604D5154B9A69C5
:1006F0000AB19B699847630704D5124BDA690AB1BE
:10070000DB699847200704D50E4B1A6A0AB11B6AA9
:100710009847A10704D50B4B9A6B0AB19B6B98477E
:10072000A20604D5074B1A6D0AB11B6D98476306E4
:1007300004D5044B5A6D0AB15B6D984710BD00BFDC
:10074000A0C00440608AFF1F094B10B51C68A207B7
:100750001C6004D5074B9A6E0AB19B6E9847E3075D
:1007600004D5044BDA6F0AB1DB6F984710BD00BFA8
:10077000A0D00440608AFF1F044B054900221A6084
:100780000A60044A106010221A60704714D00340B7
:1007900004D0034000D00340212810B518D80D4ADA
:1007A00052F8303093F880423CB1012211B183F805
:1007B000802010BD83F8002110BD02EBC00043680B
:1007C0001A6811B142F0030201E022F002021A603D
:1007D00010BD00BFEC2E0000212816D80B4A02EBFA
:1007E000C00301295B6852F8302004D182F88012DE
:1007F0004FF4A27208E0002082F8800211B94FF491
:10080000807201E040F203121A607047EC2E000083
:1008100072B60B4B0B491A680B4B1B68096862B622
:10082000490102D5322A88BF0133C2F53B427F32EB
:100830003021B2FBF1F24FF47A7000FB03207047D5
:1008400018E000E004ED00E0E88AFF1F70B5044600
:10085000FFF7DEFF05466CB140F2E736FFF7D8FF41
:10086000401BB04203D9013C04D005F57A7500F075
:10087000C7FBF3E770BDFFFF10B5FFF745FE164B52
:10088000164A174C00204BF6FF7118605960282358
:1008900013609360136193611362936213639363B4
:1008A000092222600F4C20606160A360236144F83C
:1008B000042C0D4C20600D4801600D490B608B60CD
:1008C0000C4B1A6001F0EAFB0420FFF7BFFFBDE804
:1008D000104001F09BB900BF048003400C8003402E
:1008E000008003400490034004800B4008800B40CC
:1008F0000C800B4000800B40F8B5124D124E2F4675
:100900003378DBB12B681BB9022000F0BBFD2860F7
:10091000386898B14388C218147A5CB102880133F0
:10092000934205D301F0DEF9064B00221A6007E07E
:10093000438005E001F0D6F92C60E1E74FF0FF3489
:100940002046F8BDF88AFF1FFB8CFF1FF8B50C4D41
:100950000C4E2F4633787BB12B681BB9022000F078
:1009600091FD2860386838B14388C3181C7A2CB9C7
:1009700001F0B8F92C60EDE74FF0FF342046F8BDE8
:10098000F88AFF1FFB8CFF1F38B5124C236833B168
:10099000104B1868438802880024C51810E00E4BDD
:1009A0001B781BB1022000F06DFD20602468002C34
:1009B000EED10DE02919097A09B94CB904E00134E6
:1009C000E1189142F6DBF8E701F08CF9014B1C606D
:1009D000204638BDF88AFF1FFB8CFF1F2DE9F84326
:1009E000314B324DDFF8D09001220C461A7006468A
:1009F00053E02B685BBB2C4F43F2292899F8003059
:100A000013B9294A137018E0012000F057FD05289A
:100A100004D9B8F10108264A08D109E001233B7046
:100A200001F042F928600028F3D010E0137843B1B8
:100A3000012313701C4B00221A704FF0FF30BDE8E9
:100A4000F8833B7000F0DCFA01233B70D6E729689D
:100A5000174A488800231370C0F14002944238BFFF
:100A6000224600F108078018CF194880A41A02E036
:100A7000F05CF85401339342FAD1F6184B883F2BBF
:100A80000C4B02D805221A7007E040220A8000278A
:100A900001201F7000F064FD2F60002CA9D1024BD3
:100AA00020461C70BDE8F883EC8AFF1FF08AFF1F08
:100AB000F48AFF1FFC8AFF1FFB8CFF1F07B502ABE8
:100AC000012103F8010D1846FFF788FF0EBDFFFF57
:100AD00038B50E4B1B78C3B10D4B1968A9B14A88C4
:100AE0009AB10C48002303708C181D4602E0E018F0
:100AF0000133057298183F28F9DD40230B8001204F
:100B000000F02EFD024B00221A6038BDFB8CFF1F47
:100B1000F08AFF1FFC8AFF1F38B50C4B1B789BB96E
:100B20000B4A11684A881D468C1802E0E018013310
:100B3000057298183F28F9DD40230B80012000F052
:100B40000FFD034B00221A6038BD00BFEC8AFF1F67
:100B5000F08AFF1F1B4B1A6842F480621A601A4A1F
:100B600000231370194A1370194A1370194A13702D
:100B7000194A1370194B40F213321A604FF4517234
:100B80005A60174BC0F344321A70C0F347125A70C0
:100B900000F01F00134A987202210423137051744D
:100BA000D374114B88221A703C2203F80D2C0F4B82
:100BB00040226FF44A711A705B184FF400521A60A9
:100BC000704700BF348004407F8BFF1FFE8AFF1FE9
:100BD000888BFF1F808BFF1FFD8AFF1F40A00440F2
:100BE00000A0064002A0064010A006402DE400E050
:100BF000134A137800F0030103F0EC030B434107A1
:100C000048BF43F01003137000F00F03042B04D10E
:100C10000C4B1A7842F040021A700B4A1378C10646
:100C200003F0EF0348BF43F010031370054A137835
:100C3000800603F0EF0348BF43F0100313707047C2
:100C400002A0064006A0064005A006400E4B1B6809
:100C5000580510B503D410BD00F0D2F900E00B4CDC
:100C60002378002BF8D10A4A4FF400511160094A49
:100C70000949137040F203120A604A60074A137070
:100C8000074A137010BD00BF34800440FD8AFF1F67
:100C900084E100E003A0064040A004407F8BFF1FDA
:100CA000FE8AFF1F38B5094B04461D78002DFCD184
:100CB00020460121FFF790FD20462946FFF76CFDF5
:100CC000034B53F83420034B1A6038BDFD8AFF1FD5
:100CD000EC2E0000848BFF1F1D4B1B685A052DE96D
:100CE000F041064632D51B4B1B680BB101221A702E
:100CF000194B1A4D1C781A4FDFF86C8001343F2CC9
:100D000088BF002415E000F04FFB40280DDC3B7845
:100D10001B060ED52B78134A01333F2B88BF0023C7
:100D200018F8031011702B7003E0FF2801DD00F0AC
:100D300067F92B78A342E6D00B4B1E550B4B0122D3
:100D40001A70054B1C700A4BBC221A70BDE8F0816A
:100D500034800440848BFF1F888BFF1F808BFF1F14
:100D600004A0064007A00640FF8AFF1FFD8AFF1F60
:100D700003A006402DE9F84F254B1B680646580591
:100D8000884643D5234B1B680BB101221A70224DB4
:100D9000B346A94633E0214B1C782F7801343F2C11
:100DA00088BF0024A74209D01BF8012B1C4B1A5501
:100DB0001C4B01221A70194B1C7020E01A4BDFF8F3
:100DC00070A0BC221A7000F0EFFA40280FDC9AF8ED
:100DD000003019060FD52B78114A01333F2B88BFFD
:100DE0000023D15C114A117089F8003003E0FF281C
:100DF00001DD00F005F92B78BB42E4D0D4E706EB27
:100E000008039B45C7D3084BBC221A70BDE8F88F76
:100E100034800440848BFF1F808BFF1F888BFF1F53
:100E2000FF8AFF1FFD8AFF1F03A0064007A00640A0
:100E300004A0064010B5044C01E000F0E1F823786E
:100E4000002BFAD110BD00BFFD8AFF1F044B18789C
:100E5000044B1B78984238BF4030C01A704700BF1F
:100E60007F8BFF1FFE8AFF1F084B094A19781378F2
:100E7000994207D001333F2B88BF00230549C85C46
:100E8000137070474FF0FF30704700BF7F8BFF1F1C
:100E9000FE8AFF1F3F8BFF1F074B1A78074B1B78FB
:100EA0009A4206D001333F2B88BF0023044AD05C0E
:100EB00070474FF0FF3070477F8BFF1FFE8AFF1F88
:100EC0003F8BFF1F0A4B1B685B050FD5094B1A7838
:100ED00002F0CB021A70084A402111701A7842F0D1
:100EE00034021A70054B1A78054B1A70704700BF10
:100EF0003480044003A0064011A00640FE8AFF1F74
:100F00007F8BFF1FF0B5304B1B7813F0300F20D0D4
:100F100072B62E4B197831B90F3B40221B782C4BFF
:100F20001A7062B615E062B62A4B2B4C1A782B4B1E
:100F30002B4D1878531C3F2B88BF00232678834203
:100F40001CBFEE541A46013911F0FF01F2D1214BBA
:100F50001A70244B1B7819465BB2002B1FDA1A4A11
:100F6000137818061BD5204B204E1F78204B1A4DA6
:100F70001B78204CBB4209D001333F2B88BF002394
:100F80001078F05C287020780728F3D9184A13707D
:100F90000D4B1B781A0602D5124B7C221A7001F0F9
:100FA0004003DBB27BB1084B1B7803F04003DBB29C
:100FB0004BB1114B00221A70104B1B6803B11A7011
:100FC000084B3C221A70F0BD04A0064016A0064053
:100FD00011A006407F8BFF1F07A00640FE8AFF1F5F
:100FE0003F8BFF1F03A00640888BFF1FFF8AFF1F58
:100FF000808BFF1F14A00640FD8AFF1F848BFF1FFC
:101000007047FFFF174B1A6842F480521A60164A65
:1010100000231370154A1370154A1370154A137084
:10102000154A1370154A40F2133111604FF4517193
:101030005160134AC0F344311170C0F3471100F0FE
:101040001F0051709072937013740E4B2C221A7003
:101050000D4B40226FF44B711A705B184FF4003245
:101060001A60704734800440F38BFF1F8A8BFF1F88
:10107000F58BFF1FF48BFF1F898BFF1F08C00440F7
:1010800000C0064003C0064031E400E0134A137874
:1010900000F0030103F0EC030B43410748BF43F0AA
:1010A0001003137000F00F03042B04D10C4B1A78BB
:1010B00042F040021A700B4A1378C10603F0EF03A6
:1010C00048BF43F010031370054A1378800603F0FD
:1010D000EF0348BF43F010031370704702C006408F
:1010E00006C0064005C006400E4B1B68D80410B56C
:1010F00003D410BDFFF784FF00E00B4C2378002BD6
:10110000F8D10A4A4FF400311160094A09491370B5
:1011100040F203120A604A60074A1370074A1370CC
:1011200010BD00BF34800440898BFF1F84E100E0C4
:1011300003C0064008C00440F38BFF1F8A8BFF1FCB
:101140001B4B1B68DA042DE9F04106462DD5194BDF
:10115000194D1C78194FDFF86C800134272C88BF9B
:10116000002415E000F020F940280DDC3B781B0638
:101170000ED52B78124A0133272B88BF002318F88D
:10118000031011702B7003E0FF2801DDFFF738FF1B
:101190002B78A342E6D00B4B1E550B4B01221A7045
:1011A000044B1C70094BAC221A70BDE8F08100BFE3
:1011B00034800440F58BFF1FF48BFF1F04C00640F2
:1011C00007C006408B8BFF1F898BFF1F03C00640A3
:1011D00038B54518044603E014F8010BFFF7B0FFDB
:1011E000AC42F9D138BDFFFF10B5044C01E0FFF768
:1011F00007FF2378002BFAD110BD00BF898BFF1F9A
:10120000044B1878044B1B78984238BF4030C01A02
:10121000704700BFF38BFF1F8A8BFF1F084B094AE3
:1012200019781378994207D001333F2B88BF0023E8
:101230000549C85C137070474FF0FF30704700BF1E
:10124000F38BFF1F8A8BFF1FB38BFF1F074B1A788F
:10125000074B1B789A4206D001333F2B88BF0023EF
:10126000044AD05C70474FF0FF307047F38BFF1F8C
:101270008A8BFF1FB38BFF1F024B1A78024B1A7029
:10128000704700BF8A8BFF1FF38BFF1F10B5214BE8
:101290001B7803F02003DBB273B11F4B1F4A187891
:1012A0001F491378097801333F2B88BF00238B42F5
:1012B00002D01C49C85413701B490B7818465BB206
:1012C000002B15DA134B1B781B0611D5174B184A48
:1012D0001C7813789C4202D16C230B7008E0013318
:1012E000272B88BF00231349CC5C0B490C7013706B
:1012F00000F04003DBB25BB1064B1B7803F0400308
:10130000DBB22BB10C4B00221A70074B2C221A7047
:1013100010BD00BF04C0064007C00640F38BFF1F8E
:101320008A8BFF1FB38BFF1F03C00640F58BFF1F87
:10133000F48BFF1F8B8BFF1F898BFF1F024B1A68DB
:1013400001321A60704700BFE88AFF1F38B50B4CA6
:1013500025462368580301D500F042F92B6859054A
:1013600001D5FFF7CFFD2B681A0501D500F03EFE31
:101370002368DB04EDD5FFF789FFEAE734800440FA
:1013800008B5FFF7E3FFFFFF014B10221A807047FB
:10139000002005407047FFFF024A136818181060CC
:1013A000184670474484FF1FEFF313839BB9EFF394
:1013B000108098B9EFF3058323B10F2B04D9084AA5
:1013C000985C01E04FF48070EFF311833BB19842D9
:1013D00028BF184670474FF0FF30704718467047D7
:1013E000F0E300E01FB572B6124B70221A70124A79
:1013F000412111700F2102F8011C80221A701A7805
:101400001206FCD562B60D4B01A918680A2200F03D
:101410008BFC0B48002301AA9A5C2AB100EB430124
:1014200001330A2B4A80F6D10133054A5B00137061
:1014300005B000BD00000240070002400800024065
:101440002285FF1FF0B50C4B0C4C1A7842F00205B8
:1014500004EBC50682F00102706009481A70067834
:10146000002E0CBF8827C82747EA014186F00106F5
:1014700044F835100670F0BD748CFF1F0080FF1F0C
:10148000FC8CFF1F431E052B10B510D872B6094AFD
:1014900052F8230048B1416842F82310064A0188F7
:1014A00032F81340611A22F8131062B610BD002002
:1014B00010BD00BF5C8CFF1F1C8EFF1F013805286C
:1014C0000BD872B6064B53F82030002001E05B6861
:1014D0000130002BFBD162B670470020704700BF7F
:1014E000B88CFF1F70B572B6184E194C01239A19AB
:1014F00012F8012C02F00802D2B2E2B19900144AAB
:1015000054F831502DB902EB431308305860114B99
:1015100009E041F0010154F8315065B902EBC10313
:10152000083058600C4B42F831300C4B1A78013AB5
:101530001A7062B670BD0133072BD8D162B6074B63
:1015400000221A70BDE8704000F0CCBBFC2F0000F8
:101550000080FF1F88004000C8004000F28CFF1F81
:10156000431E052B30B532D84001194A40F0100017
:10157000101872B6174CE25C032A09D8DFE802F0B3
:10158000160218050830022213E00830042210E089
:101590001148124A50F8234014B940F8231002E0D1
:1015A00052F82300416042F823100FE0032200E0CC
:1015B0000522E25410F0080F01F108030A88436085
:1015C0000CBF8823C82343EA0243036062B630BDE0
:1015D0000080FF1F148CFF1FB88CFF1FD08CFF1FD3
:1015E0002DE9F74FA34EA44C357805F00403DBB288
:1015F000ABB1A24B1B7883B1A14A137823B1013B55
:10160000DBB2137003B900BE9E4A13782BB1013BC5
:10161000DBB213700BB9FFF77FFA0423337005F0C8
:101620000802D2B2002A00F07B82974B1B781D097A
:101630004FEA930940F0F98154F8392004EBC903CB
:10164000C2F38302013A5B680C2A00F2EB81DFE807
:1016500012F0A001A001E901E901E901E901E901B4
:10166000E901C001E901E901E9010D001A688749B2
:101670005B68874D4B60874B0A6044F83930864B76
:101680000020186001232B7092B240F28165AA42BB
:101690002061A06117D8B2F5D06F80F02881B2F533
:1016A000817F00F0D58006D8802A00F0BB80822A96
:1016B00040F03581BAE040F202339A4200F00881EE
:1016C000B2F5A06F10E0B2F5106F10D004D8B2F5EB
:1016D000086F40F02481A0E040F621139A4200F008
:1016E000558103F580739A4240F019811BE18A7895
:1016F000624B614D1A702B6A180603D5686A083868
:1017000000F0F0FA654908358D42F4D1DFF8B49164
:10171000DFF8B4B10025A846CA4655F8090005E02F
:101720004368009300F0DEFA009B18460028F7D1CA
:101730005B4B4AF8050045F80B00E85807E04268A3
:101740000093019200F0CEFA019A009B1046002807
:10175000F5D15851534BE850534B23F81800534BD5
:1017600018F80320023A032A08D8DFE802F002043E
:101770000204002200E0012203F8082008F1010819
:101780000435B8F1060FC8D1494BDFF8409100226B
:101790001A7001259846474B05EB0902EB1812F821
:1017A000012C9B001A7002F00802D2B23AB300F08A
:1017B0007BFAAB0038B104EB4512083050603E4A6A
:1017C00044F8332006E044F8330098F80030013341
:1017D00088F8003000F068FAAB0043F0010338B13C
:1017E00004EBC302083050602A4A44F8332006E074
:1017F00044F8330098F80030013388F80030AA002C
:1018000042F00201013542F003020023072D44F8A3
:10181000313044F83230BED129E0184A274D1278D1
:101820002A7083E0254D287068707EE08A88062A39
:1018300000D974E09100224A204D8A1828706870FF
:10184000127802F00202D2B2002A6ED02B706CE045
:101850008A8802F07F03062B61DC4B8803B15EE0CF
:101860009100174A8A18117821F0020111701D4663
:101870005CE000BF802007400080FF1FFB8CFF1F43
:10188000758CFF1FFC8AFF1F90200740E88CFF1F0C
:10189000FC8CFF1FC8004000F88BFF1FC080FF1F9B
:1018A000B88CFF1FD08CFF1F1C8EFF1F148CFF1FD6
:1018B000F28CFF1F30C8011088004000F38CFF1F1E
:1018C000C02007405C8CFF1FFC8BFF1FFC2F00001B
:1018D0008A8802F07F03062B21DC4B8803B11EE0CF
:1018E0009100A04A8A18117841F00201BEE74A88A7
:1018F0009D4B898853F8085CA3F10C007DB133F847
:101900000CCC944509D133F80ACC8C4505D1120A88
:10191000032A0CBF2B78038908E00C33EAE7914BCC
:101920000F221A7032E00023A1E702238F4AB2F897
:1019300006904B4538BF9946B9F1400F34BFC846B1
:101940004FF0400828464146FFF77CFDB9EB0809F7
:10195000454403D1B8F1400F07D017E0B9F1400F6B
:1019600034BFC8464FF0400800E0C846284641460C
:10197000FFF768FDB9EB0809454402D1B8F1400F03
:1019800004D17B4B7B4A1D60A2F8009001227A4B68
:1019900047E0764A79481168814216D15168784A01
:1019A000914212D11A78A92A0FD15A78452A0CD11E
:1019B0009A78C22A09D1DB786B2B06D1714B0020B3
:1019C000052201461A70FFF73DFD6F4B44F8393090
:1019D00028E0674BD3F80080B8F1000F18D0DFF88B
:1019E0009491B9F800A0BAF1400F34BF5546402594
:1019F00040462946FFF726FDC5EB0A039BB2A9F82E
:101A000000300BB9402D01D108EB0503584A136093
:101A1000564B1A88B2F5A06F04D100225A709A78FA
:101A20005A4B1A700122544B6DE004EBC90803F0C5
:101A30000803D8F80420013DD9B2A2F10800EDB2A4
:101A4000002937D000F04EF95148524B50F825107C
:101A5000F1B14A6840F8252001F10802C8F80420D5
:101A60005A5D032A0BD8DFE802F0020406080322BD
:101A700004E0022202E0052200E004225A5518F098
:101A8000080F0A880CBF8823C82343EA024342E0B8
:101A90005A5D032A07D8DFE802F040400204002222
:101AA00006E0012204E018F0080F0CBF0222032216
:101AB0005A5532E054F839301B0C22F8083C23B355
:101AC00022F8061C42F8041C334A344952F82570A7
:101AD00017B942F8250002E051F825205060304A3D
:101AE00041F8250032F815105B1822F8153000F087
:101AF000DBF818B10830C8F8040006E0294B44F8B8
:101B000039001A7801321A7007E01F4B264A18F084
:101B1000080F08BF134644F839300823337063E5D3
:101B2000E90751D514492048204C02230B70204B63
:101B30001A70204B186098601F481A61D8609A612B
:101B40005C60084B0D2018701C48FF23037000F8E0
:101B5000083C02741A4A13701A4B9F221A70012310
:101B60000B704AE0C020074010300000E88CFF1FD7
:101B7000F88BFF1FF08CFF1F942007402109000302
:101B800001000400758CFF1FC8004000982007402A
:101B9000B88CFF1F148CFF1F5C8CFF1FFC8BFF1F7A
:101BA0001C8EFF1FF28CFF1F880040001C8CFF1F43
:101BB000748CFF1F0080FF1F788CFF1F8820074058
:101BC0008C200740842007402B0605D50C4B0D22A6
:101BD0001A70802203F8402C05F00203DBB22BB10F
:101BE000084B1A781A70022203F8082C05F0100529
:101BF000EDB215B1044B10221A70BDE8FE8F00BF84
:101C0000C0200740882007408020074008B5FFF724
:101C1000E9FB00231E491A465A50C8180833C82B3E
:101C20004260F9D11B4B1A6842F480221A601A4BA9
:101C300080221A701978184A0906FBD4144B1749E8
:101C4000C3F307200870C3F307401B0E08750B761B
:101C5000FF2301F81C3C01F8143C01F88C3C13787C
:101C600043F0400313700021012302F8783C02F88E
:101C70000C1C02F8883C0A4B70226FF4507C1A70DE
:101C800063444FF400721A60064B10221A7008BDAC
:101C90000080FF1F348004400C2107409C20074037
:101CA00049E400E00821074072B60C4A1168B1FA15
:101CB00081F30B2B02D962B6002070474FF0004031
:101CC00020FA03F021EA0001116062B604494822BB
:101CD0005343C8180022CA50426070473885FF1F1E
:101CE000E080FF1F0C4B4822C31AB3FBF2F30B2B0F
:101CF00011D80A4A127822B1094A12780AB1FFF7BC
:101D0000F1BB72B6074A4FF0004121FA03F31168A4
:101D10001943116062B67047E080FF1FF28CFF1F0D
:101D2000FB8CFF1F3885FF1F10B50023B0FBF2F4BA
:101D300002FB1400092801D8303000E03730C854C5
:101D400020460CB10133F1E7CA185470224605E071
:101D5000885CCC5C8C54C8540132013B9A42F7DB5E
:101D6000084610BD164B1A6842F400621A60154A04
:101D700000231370144A1370144A1370144A13701A
:101D8000144A1370144A40F2133111604FF4517128
:101D90005160124AC0F344311170C0F3471100F092
:101DA0001F0051709072937013740D4B2C221A7097
:101DB0000C4B40221A700C4B4FF400421A607047D3
:101DC00034800440678DFF1FFE8CFF1F698DFF1F4D
:101DD000688DFF1FFD8CFF1F0CB0044000B0064053
:101DE00003B006402FE400E004E100E0134A13785A
:101DF00000F0030103F0EC030B43410748BF43F03D
:101E00001003137000F00F03042B04D10C4B1A784D
:101E100042F040021A700B4A1378C10603F0EF0338
:101E200048BF43F010031370054A1378810603F08E
:101E3000EF0348BF43F010031370704702B0064031
:101E400006B0064005B006400E4B1B68180510B5DD
:101E500003D410BDFFF7D4F800E00B4C2378002B1F
:101E6000F8D10A4A4FF400411160094A0949137038
:101E700040F203120A604A60074A1370074A13705F
:101E800010BD00BF34800440FD8CFF1F84E100E0E2
:101E900003B006400CB00440678DFF1FFE8CFF1F8F
:101EA0001B4B1B681A052DE9F04106462DD5194B31
:101EB000194D1C78194FDFF86C800134272C88BF2E
:101EC000002415E0FFF770FA40280DDC3B781B0674
:101ED0000ED52B78124A0133272B88BF002318F820
:101EE000031011702B7003E0FF2801DDFFF788F865
:101EF0002B78A342E6D00B4B1E550B4B01221A70D8
:101F0000044B1C70094BAC221A70BDE8F08100BF75
:101F100034800440698DFF1F688DFF1F04B00640A8
:101F200007B00640FF8CFF1FFD8CFF1F03B006406B
:101F300038B54518044603E014F8010BFFF7B0FF6D
:101F4000AC42F9D138BDFFFF10B5044C01E0FFF7FA
:101F500057F82378002BFAD110BD00BFFD8CFF1F6E
:101F6000044B1878044B1B78984238BF4030C01A95
:101F7000704700BF678DFF1FFE8CFF1F084B094A8B
:101F800019781378994207D001333F2B88BF00237B
:101F90000549C85C137070474FF0FF30704700BFB1
:101FA000678DFF1FFE8CFF1F278DFF1F074B1A78C1
:101FB000074B1B789A4206D001333F2B88BF002382
:101FC000044AD05C70474FF0FF307047678DFF1FA9
:101FD000FE8CFF1F278DFF1F024B1A78024B1A70D1
:101FE000704700BFFE8CFF1F678DFF1F10B5214B90
:101FF0001B7803F02003DBB273B11F4B1F4A187824
:102000001F491378097801333F2B88BF00238B4287
:1020100002D01C49C85413701B490B7818465BB298
:10202000002B15DA134B1B781B0611D5174B184ADA
:102030001C7813789C4202D16C230B7008E00133AA
:10204000272B88BF00231349CC5C0B490C701370FD
:1020500000F04003DBB25BB1064B1B7803F040039A
:10206000DBB22BB10C4B00221A70074B2C221A70DA
:1020700010BD00BF04B0064007B00640678DFF1FCB
:10208000FE8CFF1F278DFF1F03B00640698DFF1FC9
:10209000688DFF1FFF8CFF1FFD8CFF1F224B6022EE
:1020A0001A70E1225A70214B214A1978214B0829D4
:1020B00001D1012102E00A2907D13921116013223F
:1020C0001A601D4B19605A600BE00C291A4901D1A6
:1020D000352000E03D20106012221A60174B086086
:1020E0001A60174B17491B78174A03B101230B607D
:1020F0001360164B164A1978164B012901D8802116
:102100000CE0042901D8842108E0082901D88521A0
:1021100004E0102901D8862100E0872111601960B0
:102120000D4B01221A707047004007403C85FF1F8D
:1021300008B003400CB0034008B00B400CB00B409B
:102140006B8DFF1F20B0034020B00B403D85FF1F6B
:1021500024B0034024B00B406A8DFF1FF8B5164B26
:10216000164D1A6842F080721A60154B1A6842F0D8
:1021700001021A60134B2E681C680FE0237A63B1CA
:1021800021682F680B68204698472A68E388D21B8D
:1021900012099A42A28088BFE2806469002CEDD1C6
:1021A000064B094A1B689B1B1B091380074A1188B1
:1021B0008B4288BF1380F8BDFCED00E0041000E006
:1021C000001000E06C8DFF1F728DFF1F708DFF1FD0
:1021D000F0B505468BB022B90368C9B21B689847B1
:1021E0002CE0012A08BF0A2221B930228DF82520CF
:1021F000212413E02124B1FBF2F002FB1011C9B23B
:10220000092901D8303100E037310AAF3E1906F80C
:10221000241C014610B1013CE4B2ECE733B1013CAF
:102220000AAAE4B213192D2203F8242C2B6801AF5B
:102230005B6828463919C4F1220298470BB0F0BDFB
:1022400008461146FEF7CABB0846FEF737BCFEF744
:102250003FBCFEF77BBBFEF74FBBFEF795BBFFFF16
:10226000044B00221A711A73034A4FF47A71996071
:102270001A607047748DFF1F9030000008B5034B43
:1022800001221A60024B1B68984708BD0C7103407D
:102290008C8DFF1F08B5034B01221A60024B5B684F
:1022A000984708BD1C7103408C8DFF1F08B5034B78
:1022B00001221A60024B9B68984708BD2C710340AD
:1022C0008C8DFF1F08B5034B01221A60024BDB689F
:1022D000984708BD3C7103408C8DFF1F054B0122C0
:1022E0001A60054B1A6822F400021A60034B0022A0
:1022F0001A707047007003403C800440888DFF1FB7
:10230000037B0122591103F01F0302FA03F3084A69
:1023100042F821308268002313604178054A535403
:10232000D15C21B90133042BFAD1FFF7D7BF704735
:1023300080E100E0848DFF1F037810B504460BB1E7
:10234000FFF7DEFF0023237010BD10B50446FFF732
:10235000F3FF204610BDFFFF03480449044A002351
:10236000037000F007B900BF9C8DFF1F4B230000D6
:102370004084FF1F10B5084614461146FEF728FF9B
:10238000204610BD084608B5FEF7DAFE012008BD5C
:10239000FEF772BFFEF728BFFEF740BFFEF756BF3D
:1023A000FEF72EBFFEF7A0BE480800F1B76000F5AB
:1023B0005840B0FBF1F0FEF725BE480800F1B760C9
:1023C00010B500F55840B0FBF1F01446FEF71AFEC8
:1023D0002046BDE81040FEF759BE10B50846144629
:1023E0001146FEF7C7FC204610BD084608B5FEF7AB
:1023F00073FC012008BDFEF765BDFEF71BBDFEF7AF
:1024000033BDFEF749BDFEF721BD0846FEF74ABCC5
:10241000FEF71CBC480800F1B76000F55840B0FB5F
:10242000F1F0FEF797BB480800F1B76010B500F572
:102430005840B0FBF1F01446FEF78CFB2046BDE897
:102440001040FEF7D5BBFFFF044B00221A711A7330
:10245000034A4FF47A7199601A607047B08DFF1F7C
:10246000B03000002DE9F041002407460D46264615
:102470003B190A22197928460023FFF7A9FE2B6889
:1024800080462E211B682846984701344044032C7F
:102490000644EDD12846F9790A220023FFF798FE79
:1024A0008019BDE8F081FFFF044B054A1A60002245
:1024B0001A715A719A71DA71704700BFC08DFF1F8F
:1024C000E8300000044B00221A711A73034A4FF4DB
:1024D0007A7199601A607047C88DFF1FF83000004C
:1024E00008B5FDF7F9FFFDF7FBFFFEF789FDFAE7F9
:1024F00010B5084614461146FFF71AFD204610BDD8
:10250000084608B5FFF7CCFC012008BDFFF764BD05
:10251000FFF71ABDFFF732BDFFF748BDFFF720BD3B
:10252000FFF792BC480800F1B76000F55840B0FBD7
:10253000F1F0FFF717BC480800F1B76010B500F5DF
:102540005840B0FBF1F01446FFF70CFC2046BDE804
:102550001040FFF74BBCFFFF044B00221A711A73A7
:10256000034A4FF47A7199601A607047D88DFF1F43
:102570003031000003460846194600F001B800BF9C
:1025800030B405460C46134602202946224630BC8C
:1025900000F020BB70B543F2D41643F2D415C0F25C
:1025A0000006C0F20005761BB61007D0043D0024DB
:1025B00055F8043F01349847A642F9D143F2F0168A
:1025C00043F2D415C0F20006C0F20005761B00F0FD
:1025D000FBFDB61008D0043D002455F8043F01343B
:1025E0009847A642F9D170BD70BD00BF48F2405374
:1025F0000146C1F6FF73186800F008B848F240536E
:102600000146C1F6FF73186800F0A6BB2DE9F04F34
:1026100001F10B04162C83B0074630D924F00704CF
:10262000E30F8C422CBF194643F0010100292FD142
:10263000384600F0B7FAB4F5FC7F2ED24FEAD40C3E
:1026400048F23466C1F6FF7606EBCC02D3689342BB
:1026500000F01182596803F10808DA68384621F061
:10266000030499681B195C68CA6044F00104916016
:102670005C6000F099FA404603B0BDE8F08F00239B
:1026800010248C422CBF194643F001010029CFD001
:102690000C234FF000083B60EDE75FEA542C04BFC9
:1026A0004FEAD40C4FEA4C0540F08F8048F2346674
:1026B000C1F6FF7606EB8505EB689D4206D10DE07D
:1026C000002A80F25581DB689D4207D0596821F0CD
:1026D00003010A1B0F2AF3DD0CF1FF3C0CF1010C86
:1026E00048F234623369C1F6FF7202F1080E734595
:1026F00008BFD2F8049022D0586820F00300011BD4
:102700000F2900F384810029C2F814E0C2F810E018
:1027100066DAB0F5007F80F04E81C1084FF0010805
:1027200002EBC100891008FA01F851688568D86089
:1027300048EA0109C2F804909D60EB6083600122C1
:102740004FEAAC0302FA03F34B4554D819EA030FDE
:102750000DD193402CF0030C19EA030F0CF1040C7B
:1027600005D15B000CF1040C19EA030FF9D006EB5C
:10277000CC09E0464846C268904207D15BE1002997
:1027800080F28381D268904200F05581556825F02F
:102790000305291B0F29F2DD90461319D56844F073
:1027A000010058F8084F41F0010C50603846C3F85A
:1027B00004C0E560AC6073613361C3F80CE0C3F83A
:1027C00008E0595000F0F0F955E7BCF1040F00F2B1
:1027D000DE804FEA941C0CF1380C4FEA4C0565E79B
:1027E0001A1803F108083846536843F00103536090
:1027F00000F0DAF93FE7B5686B6823F0030A544547
:1028000004D8C4EB0A030F2B00F3A48048F6E85960
:10281000D6F80814C1F6FF7905EB0A020131D9F8A0
:102820000030234408BF03F1100B06D003F580539A
:102830000F3323F47F6323F00F0B38465946019280
:1028400000F0B4F9019A411C804600F06881824290
:1028500000F23181D9F8043042455B44C9F80430B4
:1028600000F06681D6F8081448F23460C1F6FF70B3
:10287000013117BFC2EB0802C0F808849B18C9F8E1
:10288000043018F0070338461FBFC3F10802C3F530
:102890008053904403F1080208EB0B0308BF4FF488
:1028A00080521B051B0DC3EB020B594600F07EF94D
:1028B000431C00F04981C8EB0001594441F001017B
:1028C000D9F80430B54248F6E852C6F808805B44AF
:1028D000C1F6FF72C8F80410C9F8043018D0BAF174
:1028E0000F0F40F20B81AAF10C00696820F007007D
:1028F0004FF0050C05EB000E0F2801F0010140EA36
:1029000001016960CEF804C0CEF808C000F2208151
:1029100048F6E852D9F82C10C1F6FF72B5688B4220
:10292000D9F8301088BFD36248F6E852C1F6FF727A
:102930008B4288BF13636A6822F003029442C4EB9F
:10294000020301D80F2B05DC38464FF0000800F0D9
:102950002BF990E62A1943F0010344F001043846AC
:102960006C6005F108085360B26000F01DF982E662
:102970005918DA689C6838464D6803F1080845F034
:102980000105E26094604D6000F00EF973E6BCF161
:10299000140F9CBF0CF15B0C4FEA4C057FF686AE22
:1029A000BCF1540F00F293804FEA143C0CF16E0C12
:1029B0004FEA4C057AE6420A042A75D9142A9CBFCC
:1029C00002F15B094FEA490508D9542A00F2C9808F
:1029D0004FEA103909F16E094FEA490506EB850502
:1029E00048F23468C1F6FF78AA68AA4279D05168E3
:1029F00021F00301884202D292689542F7D1D06853
:102A0000D6F80490D8609A60D360836097E61D1969
:102A100041F00106556144F00104156138465C60DF
:102A200003F10808C5F80CE0C5F808E06E606950CD
:102A300000F0BAF81FE608F10108083018F0030F9B
:102A40007FF499AE4A461CF0030FA2F108010CF185
:102A5000FF3C00F09E8012688A42F4D072685B00EE
:102A600093423FF6C8AE002B3FF4C5AE1A4200F0C9
:102A70009580C4467BE603F108025B699A4208BF71
:102A80000CF1020C3FF42CAEE4E590465519D368E6
:102A9000384658F8082F6968D36041F001019A6000
:102AA000696000F081F8E6E54FEA901909F138090C
:102AB0004FEA490592E7B54248F23463C1F6FF7325
:102AC0003FF4C8AE9D686A6822F0030236E7BCF5A1
:102AD000AA7F19D84FEAD43C0CF1770C4FEA4C0589
:102AE000E4E50125D8F804104FEAA909104605FAD3
:102AF00009F545EA0109C8F8049083E70123454632
:102B0000C8F80430002219E740F254539C450BD812
:102B10004FEA944C0CF17C0C4FEA4C05C6E5B568C5
:102B20006A6822F0030209E7FC254FF07E0CBDE540
:102B30001105090D00297FF495AEB2680BEB0A016F
:102B400041F001015160E3E601214FF0000BB7E6CF
:102B5000384605F10801019200F0FEF8019A536829
:102B6000D6E6B2F5AA7F06D84FEAD03909F177093F
:102B70004FEA490532E740F25451FC258A424FF0B2
:102B80007E099EBF4FEA904909F17C094FEA490549
:102B900024E7726822EA0302726060E75B0008F1D2
:102BA000040863E7704700BF704700BF38B548F6B8
:102BB0002864C1F6FF740546084600232360FEF72B
:102BC000EBFB431C00D038BD2368002BFBD02B60EF
:102BD00038BD00BF2DE9F04143F26014C0F200049B
:102BE00084B007462568AC6C002C42D066681F2E66
:102BF0001ADD42F2ED54C0F2000424B94FF0FF3068
:102C000004B0BDE8F0818C20039102920193FFF79C
:102C1000EDFC0399029A019B04460028EED0A86CB3
:102C2000002684E84100AC64DFB1D4F8886026B3A4
:102C3000D6F8008165680120022F05F1200C00FA0A
:102C400005F046F8252048EA000246F82C3008BF77
:102C5000D6F80431C6F8002104BF1843C6F80401B1
:102C600000E06568AB1C00200135656044F8231066
:102C7000C6E705F14C04AC64B8E742F2ED50C0F28F
:102C800000000028BAD04FF484700391029201939F
:102C9000FFF7ACFC0399029A019B06460028ADD0D1
:102CA0000020C6F80001C6F804018046C4F8886018
:102CB000C0E700BFF8B548F23464C1F6FF740F46B0
:102CC0000546FFF76FFFA3685E6826F0030606F669
:102CD000EF73DF1B3F0B013F3F03B7F5805F07DB5F
:102CE00000212846FFF762FFA3689B19984204D091
:102CF0002846FFF759FF0020F8BD79422846FFF724
:102D000055FF013010D048F6EC53A168C1F6FF73AF
:102D1000F61B284646F001061A684E60D71B1F6056
:102D2000FFF742FF0120F8BD00212846FFF73EFFD4
:102D3000A368C21A0F2ADBDD48F63C2448F6EC51A2
:102D4000C1F6FF74C1F6FF7142F001025A602368B8
:102D5000C01A0860CCE700BF2DE9F0410E4680465E
:102D600000295CD0FFF71EFF48F2346556F8041CBA
:102D7000C1F6FF75A6F1080421F00103AF68E2185F
:102D80009742506820F0030067D011F001015060B5
:102D900035D000211618766816F0010F06D11B18E1
:102DA000906800294DD0D268C260906043F0010263
:102DB000E3506260F1B9B3F5007F32D35A0A042AB6
:102DC0006CD898093830410005EB810548F2346130
:102DD000C1F6FF71AA68AA426BD0516821F00301C5
:102DE0008B4202D292689542F7D1D368E360A26029
:102DF000D4609C604046BDE8F041FFF7D5BE56F870
:102E0000086C05F1080CA41B9B19A668664543D005
:102E1000D4F80CC0C6F80CC0CCF80860BAE7BDE81E
:102E2000F081DB080121686805EBC3029B1001FA01
:102E300003F3E260916818436860A160CC6094601D
:102E4000D8E7294EB042AED16C6143F001022C614B
:102E5000E060A0606260E350CCE7C018CB0707D405
:102E600056F8083CE41AC018A268E368D3609A6078
:102E700048F6402240F00103C1F6FF726360AC6087
:102E800013689842B6D348F6E8534046C1F6FF733C
:102E90001968FFF70FFFADE701217BE702F15B0047
:102EA0004100142A90D9542A0CD8180B6E304100D6
:102EB0008AE701264D688010134606FA00F00543A4
:102EC0004D6093E7B2F5AA7F03D8D80B7730410065
:102ED0007AE740F254518A4203D8980C7C30410082
:102EE00072E7FC217E206FE73C86FF1F4008FE430F
:102EF00040A004404408FE4344A004400018FE43A0
:102F000000C004403000FE43309004403400FE43D3
:102F1000349004401C18FE431CC004401018FE43AB
:102F200010C004400818FE4308C004400C18FE43BB
:102F30000CC004400C10FE430CB004401010FE43C3
:102F400010B004401810FE4318B004401C10FE439B
:102F50001CB004401410FE4314B004400418FE4397
:102F600004C004400010FE4300B004400008FE43CB
:102F700000A004400408FE4304A004400C08FE43E3
:102F80000CA004400808FE4308A004401418FE43A7
:102F900014C004401818FE4318C004400410FE4337
:102FA00004B004400810FE4308B004401400FE437F
:102FB000149004404C08FE434CA004400420FE43FF
:102FC00004D004402410FE4324B004402010FE43EB
:102FD00020B004402810FE4328B004402C10FE43CB
:102FE0002CB004400020FE4300D004404808FE43BB
:102FF00048A004401000FE43109004401519151914
:103000000000FFFF000100004884FF1F12000000C5
:10301000000200007284FF1F49000000002201002E
:10302000BB84FF1F2100000000210100A484FF1FBA
:103030000900000000220000DC84FF1F1C000000CB
:10304000002100008484FF1F09000000000300002D
:103050001E85FF1F00000000010309045A84FF1FA2
:103060000000000002030904F884FF1F00000000B4
:10307000030309042285FF1F000000000000000078
:103080000000000000000000000000000000000040
:1030900049220000412200005B220000572200006C
:1030A000532200004F22000000000000000000003A
:1030B0008523000075230000A12300009923000050
:1030C0009D23000095230000A9230000BB230000DE
:1030D000A52300000B240000912300000000000045
:1030E0000000000000000000652400000000000057
:1030F0000000000000000000EB230000DB230000C4
:1031000007240000FF23000003240000FB2300002D
:103110001524000027240000112400000B240000C7
:10312000F723000000000000000000000000000085
:1031300001250000F12400001D25000015250000D8
:103140001925000011250000252500003725000065
:10315000212500000B2400000D25000000000000C8
:103160004485FF1F43000000000000000000000035
:10317000000000000000000000000000000000004F
:10318000000000000000000000000000000000003F
:10319000000000000000000000000000000000002F
:1031A000000000000000000000000000000000001F
:1031B000000000000000000000000000000000000F
:1031C0000000000000000000F8B500BFF8BC08BC1B
:1031D0009E467047990400006122000059230000B8
:1031E00049240000A9240000C5240000592500003E
:1031F000000000002C8EFF1F1201000200000040A2
:10320000C016860400010102030118035400650082
:1032100065006E00730079006400750069006E003F
:103220006F0009024900020100C0320904000002D7
:1032300003000000092111010001221C0007058381
:1032400003400001070504034000010904010002D6
:10325000030000000921110100012221000705815E
:10326000034000010705020320000206C9FF09040C
:10327000A15C7508150026FF00954009758102952F
:10328000200976910295040976B102C006ABFF0AC7
:103290000002A1017508150026FF00954009018173
:1032A00002954009029102C02603540065006500A2
:1032B0006E00730079006400750069006E006F0095
:1032C00020005200610077004800490044000403D8
:1032D00009040C03000000000000000000000000D2
:1032E0000000000000000000FFFFFFFF0A040000D4
:1032F0004485FF1F00000000A83100008831000055
:103300006831000000000000000000000000000024
:103310000000000064310000000000000000000018
:10332000000000000000000000000000000000009D
:10333000000000000000000000000000000000008D
:10334000000000000000000000000000000000007D
:10335000000000000000000000000000000000006D
:10336000000000000000000000000000000000005D
:10337000000000000000000000000000000000004D
:10338000000000000000000000000000000000003D
:10339000000000000000000000000000000000002D
:1033A000000000000000000000000000000000001D
:1033B000000000000000000000000000000000000D
:1033C00000000000000000000000000000000000FD
:1033D00000000000000000000000000000000000ED
:1033E0000000000000000000000000003486FF1F05
:1033F0003486FF1F3C86FF1F3C86FF1F4486FF1F4D
:103400004486FF1F4C86FF1F4C86FF1F5486FF1FFC
:103410005486FF1F5C86FF1F5C86FF1F6486FF1FAC
:103420006486FF1F6C86FF1F6C86FF1F7486FF1F5C
:103430007486FF1F7C86FF1F7C86FF1F8486FF1F0C
:103440008486FF1F8C86FF1F8C86FF1F9486FF1FBC
:103450009486FF1F9C86FF1F9C86FF1FA486FF1F6C
:10346000A486FF1FAC86FF1FAC86FF1FB486FF1F1C
:10347000B486FF1FBC86FF1FBC86FF1FC486FF1FCC
:10348000C486FF1FCC86FF1FCC86FF1FD486FF1F7C
:10349000D486FF1FDC86FF1FDC86FF1FE486FF1F2C
:1034A000E486FF1FEC86FF1FEC86FF1FF486FF1FDC
:1034B000F486FF1FFC86FF1FFC86FF1F0487FF1F8B
:1034C0000487FF1F0C87FF1F0C87FF1F1487FF1F38
:1034D0001487FF1F1C87FF1F1C87FF1F2487FF1FE8
:1034E0002487FF1F2C87FF1F2C87FF1F3487FF1F98
:1034F0003487FF1F3C87FF1F3C87FF1F4487FF1F48
:103500004487FF1F4C87FF1F4C87FF1F5487FF1FF7
:103510005487FF1F5C87FF1F5C87FF1F6487FF1FA7
:103520006487FF1F6C87FF1F6C87FF1F7487FF1F57
:103530007487FF1F7C87FF1F7C87FF1F8487FF1F07
:103540008487FF1F8C87FF1F8C87FF1F9487FF1FB7
:103550009487FF1F9C87FF1F9C87FF1FA487FF1F67
:10356000A487FF1FAC87FF1FAC87FF1FB487FF1F17
:10357000B487FF1FBC87FF1FBC87FF1FC487FF1FC7
:10358000C487FF1FCC87FF1FCC87FF1FD487FF1F77
:10359000D487FF1FDC87FF1FDC87FF1FE487FF1F27
:1035A000E487FF1FEC87FF1FEC87FF1FF487FF1FD7
:1035B000F487FF1FFC87FF1FFC87FF1F0488FF1F86
:1035C0000488FF1F0C88FF1F0C88FF1F1488FF1F33
:1035D0001488FF1F1C88FF1F1C88FF1F2488FF1FE3
:1035E0002488FF1F2C88FF1F2C88FF1F3488FF1F93
:1035F0003488FF1F3C88FF1F3C88FF1F4488FF1F43
:103600004488FF1F4C88FF1F4C88FF1F5488FF1FF2
:103610005488FF1F5C88FF1F5C88FF1F6488FF1FA2
:103620006488FF1F6C88FF1F6C88FF1F7488FF1F52
:103630007488FF1F7C88FF1F7C88FF1F8488FF1F02
:103640008488FF1F8C88FF1F8C88FF1F9488FF1FB2
:103650009488FF1F9C88FF1F9C88FF1FA488FF1F62
:10366000A488FF1FAC88FF1FAC88FF1FB488FF1F12
:10367000B488FF1FBC88FF1FBC88FF1FC488FF1FC2
:10368000C488FF1FCC88FF1FCC88FF1FD488FF1F72
:10369000D488FF1FDC88FF1FDC88FF1FE488FF1F22
:1036A000E488FF1FEC88FF1FEC88FF1FF488FF1FD2
:1036B000F488FF1FFC88FF1FFC88FF1F0489FF1F81
:1036C0000489FF1F0C89FF1F0C89FF1F1489FF1F2E
:1036D0001489FF1F1C89FF1F1C89FF1F2489FF1FDE
:1036E0002489FF1F2C89FF1F2C89FF1F3489FF1F8E
:1036F0003489FF1F3C89FF1F3C89FF1F4489FF1F3E
:103700004489FF1F4C89FF1F4C89FF1F5489FF1FED
:103710005489FF1F5C89FF1F5C89FF1F6489FF1F9D
:103720006489FF1F6C89FF1F6C89FF1F7489FF1F4D
:103730007489FF1F7C89FF1F7C89FF1F8489FF1FFD
:103740008489FF1F8C89FF1F8C89FF1F9489FF1FAD
:103750009489FF1F9C89FF1F9C89FF1FA489FF1F5D
:10376000A489FF1FAC89FF1FAC89FF1FB489FF1F0D
:10377000B489FF1FBC89FF1FBC89FF1FC489FF1FBD
:10378000C489FF1FCC89FF1FCC89FF1FD489FF1F6D
:10379000D489FF1FDC89FF1FDC89FF1FE489FF1F1D
:1037A000E489FF1FEC89FF1FEC89FF1FF489FF1FCD
:1037B000F489FF1FFC89FF1FFC89FF1F048AFF1F7C
:1037C000048AFF1F0C8AFF1F0C8AFF1F148AFF1F29
:1037D000148AFF1F1C8AFF1F1C8AFF1F248AFF1FD9
:1037E000248AFF1F2C8AFF1F2C8AFF1FFFFFFFFF69
:0437F00000000200D3
:00000001FF
