:1000000000200020F9000000370F0000370F00002B
:10001000370F0000370F0000370F0000350F0000CA
:10002000350F0000350F0000350F0000370F0000BE
:10003000370F0000350F0000370F0000390F0000A8
:10004000370F0000370F0000370F0000370F000098
:10005000370F0000370F0000370F0000370F000088
:10006000370F0000370F0000370F0000370F000078
:10007000370F0000370F0000370F0000370F000068
:10008000950C0000370F0000C5190000370F000065
:10009000810E0000370F0000370F0000370F0000FF
:1000A000370F0000370F0000370F0000370F000038
:1000B000370F0000370F0000BD1B0000D51B0000EC
:1000C000ED1B0000051C0000370F00005911000057
:1000D000370F0000370F0000370F0000370F000008
:1000E000310500008105000009060000C50600007A
:1000F00049070000370F00004A4B4CF2205210B560
:100100001A804DF628121A80102223F80E2C00F0C7
:100110001BFF454B454A1A60454A5A60454B1A68D1
:1001200012F4807204D144490A604FF4A8521A6054
:10013000424B1A7802F00802D2B21AB11A7842F091
:1001400008021A7000233E4A3E483F4C02E019590B
:100150009950043399188142F9D33C4B3C4A002111
:1001600001E043F8041B9342FBD33A4B00221A6090
:10017000394B0A221A70394B24221A70A02203F834
:10018000012C374A137803F00203DBB2002BF9D0BD
:10019000334A137803F01003DBB2002BF9D1304A55
:1001A000137803F00C03082BFAD12E4B03221A709C
:1001B00040225A702A4A137803F02003DBB2002B46
:1001C000F9D0274A137803F04003DBB2002BF9D0B3
:1001D000254A264B1A60264B20221A70204A137893
:1001E00003F00C030C2BFAD1224B02221A60224A94
:1001F00043F8442C214B4BF67F321A60072243F818
:10020000042C62B600F0C8FA0B4B1B68DB0702D562
:100210001B4800F0B1FA01F001FE00F095FE01F07C
:10022000C1FDFEE70E20054038800440823F0400F7
:100230000100002B10D0034014D0034002D007402F
:1002400040E4FF1F44EAFF1FD029000044EAFF1FDB
:100250001CEEFF1F08ED00E0005006400140064084
:10026000064006400440064000000311448004405C
:100270000040064048800440C010050014E000E043
:100280006B94CB51FFFFFFFFFFFFFFFFFFFFFFFF5F
:10029000FFFFFFFFFFFFFFFFFFFFFFFFFFFFFFFF6E
:1002A000FFFFFFFFFFFFFFFFFFFFFFFFFFFFFFFF5E
:1002B000FFFFFFFFFFFFFFFFFFFFFFFFFFFFFFFF4E
:1002C000FFFFFFFFFFFFFFFFFFFFFFFFFFFFFFFF3E
:1002D000FFFFFFFFFFFFFFFFFFFFFFFFFFFFFFFF2E
:1002E000FFFFFFFFFFFFFFFFFFFFFFFFFFFFFFFF1E
:1002F000FFFFFFFFFFFFFFFFFFFFFFFFFFFFFFFF0E
:10030000FFFFFFFFFFFFFFFFFFFFFFFFFFFFFFFFFD
:10031000FFFFFFFFFFFFFFFFFFFFFFFFFFFFFFFFED
:10032000FFFFFFFFFFFFFFFFFFFFFFFFFFFFFFFFDD
:10033000FFFFFFFFFFFFFFFFFFFFFFFFFFFFFFFFCD
:10034000FFFFFFFFFFFFFFFFFFFFFFFFFFFFFFFFBD
:10035000FFFFFFFFFFFFFFFFFFFFFFFFFFFFFFFFAD
:10036000FFFFFFFFFFFFFFFFFFFFFFFFFFFFFFFF9D
:10037000FFFFFFFFFFFFFFFFFFFFFFFFFFFFFFFF8D
:10038000FFFFFFFFFFFFFFFFFFFFFFFFFFFFFFFF7D
:10039000FFFFFFFFFFFFFFFFFFFFFFFFFFFFFFFF6D
:1003A000FFFFFFFFFFFFFFFFFFFFFFFFFFFFFFFF5D
:1003B000FFFFFFFFFFFFFFFFFFFFFFFFFFFFFFFF4D
:1003C000FFFFFFFFFFFFFFFFFFFFFFFFFFFFFFFF3D
:1003D000FFFFFFFFFFFFFFFFFFFFFFFFFFFFFFFF2D
:1003E000FFFFFFFFFFFFFFFFFFFFFFFFFFFFFFFF1D
:1003F000FFFFFFFFFFFFFFFFFFFFFFFFFFFFFFFF0D
:10040000FFFFFFFFFFFFFFFFFFFFFFFFFEFFFFFFFD
:1004100008B54EF64420074BC1F6FF701B1A062B99
:1004200000D808BD40F20003C0F20003002BF8D052
:100430009847F6E747EAFF1F08B54EF644204EF608
:100440004423C1F6FF70C1F6FF731B1A9B1003EB28
:10045000D373591000D108BD40F20002C0F200026F
:10046000002AF8D09047F6E710B54EF64424C1F6BE
:10047000FF74237873B9FFF7CBFF40F20003C0F29B
:1004800000032BB142F6D010C0F20000AFF30080A1
:100490000123237010BD00BF08B540F20003C0F275
:1004A00000034BB142F6D0104EF64821C0F20000D6
:1004B000C1F6FF71AFF300804EF64420C1F6FF7025
:1004C00003682BB140F20003C0F2000303B1984768
:1004D000BDE80840FFF7B0BF0D20012100F0B0B922
:1004E00008B501210D2000F08BF94FF47A7000F06F
:1004F000E1F90D20002100F083F94FF47A70BDE896
:10050000084000F0D7B9FFFF084B4FF480721A6023
:100510004FF400721A604FF480621A604FF4006268
:100520001A604FF480521A60704700BF04E100E087
:10053000114B10B51C68E0041C6004D50F4BDA6841
:100540000AB1DB689847A10404D50C4B1A690AB1BB
:100550001B699847A20604D5084B1A6E0AB11B6E98
:100560009847E30606D5054BD3F8842012B1D3F89B
:100570008430984710BD00BFA090044060EAFF1F80
:100580001F4B10B51C68E0031C6004D51D4B1A6896
:100590000AB11B689847A10304D51A4B5A680AB1DF
:1005A0005B689847E20704D5164B1A6C0AB11B6CBE
:1005B0009847A30704D5134B5A6C0AB15B6C984754
:1005C000200704D50F4B9A6C0AB19B6C98476107C2
:1005D00004D50C4BDA6C0AB1DB6C9847220304D5C6
:1005E000084B5A6E0AB15B6E9847630306D5054BFC
:1005F000D3F8802012B1D3F88030984710BD00BFE7
:10060000A0A0044060EAFF1F2C4B10B51C68200717
:100610001C6004D52A4B5A6A0AB15B6A9847E10606
:1006200004D5274B9A6A0AB19B6A9847620604D59B
:10063000234BDA6A0AB1DB6A9847230604D5204BBC
:100640001A6B0AB11B6B9847A00604D51C4B5A6B5A
:100650000AB15B6B9847E10704D5194BDA6B0AB115
:10066000DB6B9847A20704D5154B9A6D0AB19B6DB9
:100670009847630704D5124BDA6D0AB1DB6D9847D2
:10068000A00504D50E4BDA6E0AB1DB6E9847E10582
:1006900004D50B4B1A6F0AB11B6F9847620504D53E
:1006A000074B5A6F0AB15B6F9847230504D5044B7B
:1006B0009A6F0AB19B6F984710BD00BFA0B004406D
:1006C00060EAFF1F1E4B10B51C68E0071C6004D5D4
:1006D0001C4B9A680AB19B689847210604D5194BB0
:1006E0005A690AB15B699847E20604D5154B9A69C5
:1006F0000AB19B699847630704D5124BDA690AB1BE
:10070000DB699847200704D50E4B1A6A0AB11B6AA9
:100710009847A10704D50B4B9A6B0AB19B6B98477E
:10072000A20604D5074B1A6D0AB11B6D98476306E4
:1007300004D5044B5A6D0AB15B6D984710BD00BFDC
:10074000A0C0044060EAFF1F094B10B51C68A20757
:100750001C6004D5074B9A6E0AB19B6E9847E3075D
:1007600004D5044BDA6F0AB1DB6F984710BD00BFA8
:10077000A0D0044060EAFF1F044B054900221A6024
:100780000A60044A106010221A60704714D00340B7
:1007900004D0034000D0034010B5FFF7B5FE114B65
:1007A000114A124C00204BF6FF7118605960282343
:1007B0001360936013619361136293621363936395
:1007C000092222600A4C20600A4801600A490B6035
:1007D0008B600A4B1A6001F04FF9BDE8104000F041
:1007E000D1BF00BF048003400C8003400080034061
:1007F00004900340089003400C9003400090034095
:10080000212810B518D80D4A52F8303093F880429C
:100810003CB1012211B183F8802010BD83F8002182
:1008200010BD02EBC00043681A6811B142F0030228
:1008300001E022F002021A6010BD00BF7427000020
:10084000212816D80B4A02EBC00301295B6852F835
:10085000302004D182F880124FF4A27208E0002008
:1008600082F8800211B94FF4807201E040F2031265
:100870001A6070477427000072B60B4B0B491A6858
:100880000B4B1B68096862B6490102D5322A88BF42
:100890000133C2F53B427F323021B2FBF1F24FF41B
:1008A0007A7000FB0320704718E000E004ED00E0E0
:1008B000E8EAFF1F70B50446FFF7DEFF05466CB19E
:1008C00040F2E736FFF7D8FF401BB04203D9013CA6
:1008D00004D005F57A7500F057FAF3E770BDFFFF15
:1008E000F8B5124D124E2F463378DBB12B681BB989
:1008F000022000F083FB2860386898B14388C21852
:10090000147A5CB102880133934205D300F0A0FF52
:10091000064B00221A6007E0438005E000F098FFD4
:100920002C60E1E74FF0FF342046F8BDF8EAFF1FE6
:10093000F3ECFF1FF8B50C4D0C4E2F4633787BB10E
:100940002B681BB9022000F059FB2860386838B1C9
:100950004388C3181C7A2CB900F07AFF2C60EDE7AD
:100960004FF0FF342046F8BDF8EAFF1FF3ECFF1FFD
:1009700038B5124C236833B1104B1868438802888D
:100980000024C51810E00E4B1B781BB1022000F0AC
:1009900035FB20602468002CEED10DE02919097A7E
:1009A00009B94CB904E00134E1189142F6DBF8E7EB
:1009B00000F04EFF014B1C60204638BDF8EAFF1FD7
:1009C000F3ECFF1F2DE9F843314B324DDFF8D090A7
:1009D00001220C461A70064653E02B685BBB2C4F75
:1009E00043F2292899F8003013B9294A137018E006
:1009F000012000F01FFB052804D9B8F10108264AA0
:100A000008D109E001233B7000F004FF28600028B2
:100A1000F3D010E0137843B1012313701C4B002274
:100A20001A704FF0FF30BDE8F8833B7000F0ACF96E
:100A300001233B70D6E72968174A488800231370C2
:100A4000C0F14002944238BF224600F108078018E6
:100A5000CF194880A41A02E0F05CF85401339342A5
:100A6000FAD1F6184B883F2B0C4B02D805221A708E
:100A700007E040220A80002701201F7000F02CFBB5
:100A80002F60002CA9D1024B20461C70BDE8F883D2
:100A9000ECEAFF1FF0EAFF1FF4EAFF1FFCEAFF1F6A
:100AA000F3ECFF1F07B502AB012103F8010D184657
:100AB000FFF788FF0EBDFFFF38B50E4B1B78C3B1A3
:100AC0000D4B1968A9B14A889AB10C4800230370EC
:100AD0008C181D4602E0E0180133057298183F2873
:100AE000F9DD40230B80012000F0F6FA024B0022D2
:100AF0001A6038BDF3ECFF1FF0EAFF1FFCEAFF1F8E
:100B000038B50C4B1B789BB90B4A11684A881D46B7
:100B10008C1802E0E0180133057298183F28F9DDBF
:100B200040230B80012000F0D7FA034B00221A600B
:100B300038BD00BFECEAFF1FF0EAFF1F0E4B1B6839
:100B40005A0570B5064616D50C4B0D4D1C78013470
:100B50003F2C88BF002401E000F016F92B78A34257
:100B6000FAD0084B1E55084B01221A70034B1C701B
:100B7000064BBC221A7070BD3480044081EBFF1F0D
:100B800080EBFF1FFFEAFF1FFDEAFF1F03A00640E7
:100B9000184B1B682DE9F0478A465905064627D5AC
:100BA0000546154FDFF860801BE03C7898F8009010
:100BB00001343F2C88BF0024A14508D015F8012B33
:100BC0000E4B1A550E4B01221A703C7009E00D4B6A
:100BD000BC221A7000F0D8F898F800304B45F9D0D4
:100BE000ECE706EB0A039D42DFD3064BBC221A70EA
:100BF000BDE8F0873480044081EBFF1FFFEAFF1F50
:100C0000FDEAFF1F03A0064080EBFF1F10B5044C58
:100C100001E000F0B9F82378002BFAD110BD00BF35
:100C2000FDEAFF1F044B1878044B1B78984238BF2D
:100C30004030C01A704700BF7FEBFF1FFEEAFF1F66
:100C4000084B094A19781378994208D00133DBB26E
:100C50003F2B88BF00230549C85C137070474FF0D5
:100C6000FF3070477FEBFF1FFEEAFF1F3FEBFF1FC8
:100C7000054B1A78054B1B789A4202D0044AD05C87
:100C800070474FF0FF3070477FEBFF1FFEEAFF1FFA
:100C90003FEBFF1FF0B52F4B1B7813F0300F21D027
:100CA00072B62D4B197831B90F3B40221B782B4B74
:100CB0001A7062B616E062B6294B2A4C1A782A4B93
:100CC0002A4D1878531CDBB23F2B88BF00232678AF
:100CD00083421CBFEE541A46013911F0FF01F1D1D5
:100CE0001F4B1A70224B1B7819465BB2002B20DA7F
:100CF000184A137818061CD51E4B1F4E1F781F4B21
:100D0000184D1B781E4CBB420AD00133DBB23F2B7F
:100D100088BF00231078F05C287020780728F2D96B
:100D2000164A13700B4B1B781B0602D5104B7C2206
:100D30001A7001F04003DBB25BB1064B1B7803F085
:100D40004003DBB22BB10F4B00221A70084B3C2240
:100D50001A70F0BD04A0064016A0064011A006407F
:100D60007FEBFF1F07A00640FEEAFF1F3FEBFF1FC0
:100D700003A0064081EBFF1FFFEAFF1F80EBFF1F70
:100D800014A00640FDEAFF1F7047FFFF0E4B1B68D3
:100D9000DA0470B5064616D50C4B0D4D1C7801349F
:100DA000272C88BF002401E0FFF7EEFF2B78A34239
:100DB000FAD0084B1E55084B01221A70034B1C70C9
:100DC000064BAC221A7070BD34800440EEEBFF1F5E
:100DD000EDEBFF1F84EBFF1F82EBFF1F03C00640FC
:100DE00038B54518044603E014F8010BFFF7CEFFB1
:100DF000AC42F9D138BDFFFF10B5044C01E0FFF75C
:100E0000C3FF2378002BFAD110BD00BF82EBFF1F78
:100E1000044B1878044B1B78984238BF4030C01AF6
:100E2000704700BFECEBFF1F83EBFF1F084B094A25
:100E300019781378994208D00133DBB23F2B88BF71
:100E400000230549C85C137070474FF0FF307047AE
:100E5000ECEBFF1F83EBFF1FACEBFF1F054B1A787A
:100E6000054B1B789A4202D0044AD05C70474FF081
:100E7000FF307047ECEBFF1F83EBFF1FACEBFF1F56
:100E800010B5224B1B7803F02003DBB27BB1204B63
:100E9000204A1878137820490133DBB209783F2BB8
:100EA00088BF00238B4202D01C49C85413701C49D0
:100EB0000B7818465BB2002B16DA144B1B781B0616
:100EC00012D5184B184A1C7813789C4202D16C2317
:100ED0000B7009E00133DBB2272B88BF00231349D5
:100EE000CC5C0B490C70137000F04003DBB25BB1BB
:100EF000064B1B7803F04003DBB22BB10C4B0022F6
:100F00001A70074B2C221A7010BD00BF04C0064097
:100F100007C00640ECEBFF1F83EBFF1FACEBFF1F8E
:100F200003C00640EEEBFF1FEDEBFF1F84EBFF1F3E
:100F300082EBFF1FFEE7FEE7024B1A6801321A60E0
:100F4000704700BFE8EAFF1F7047FFFF024A1368BF
:100F5000181810601846704744E4FF1F1FB572B69A
:100F6000124B70221A70124A412111700F2102F89F
:100F7000011C80221A701A781206FCD562B60D4B3D
:100F800001A918680A2200F085FC0B48002301AA79
:100F90009A5C2AB100EB430101330A2B4A80F6D157
:100FA0000133054A5B00137005B000BD000002402C
:100FB000070002400800024022E5FF1FF0B50C4B7D
:100FC0000C4C1A7842F0020504EBC50682F00102CF
:100FD000706009481A700678002E0CBF8827C82751
:100FE00047EA014186F0010644F835100670F0BD6D
:100FF0006CECFF1F00E0FF1FF4ECFF1F431E052BEE
:1010000010B510D872B6094A52F8230010B14168E1
:1010100042F82310064A018832F81340611A22F878
:10102000131062B610BD002010BD00BF54ECFF1FAE
:101030000CEEFF1F013805280BD8074B53F8203062
:1010400072B6002001E05B680130002BFBD162B674
:1010500070470020704700BFB0ECFF1F70B572B63C
:10106000184E194C01239A1912F8012C02F00802AB
:10107000D2B2E2B19900144A54F831502DB902EBC2
:10108000431308305860114B09E041F0010154F856
:10109000315065B902EBC103083058600C4B42F87F
:1010A00031300C4B1A78013A1A7062B670BD0133B8
:1010B000072BD8D162B6074B00221A70BDE87040EA
:1010C00000F0C6BB8428000000E0FF1F880040003D
:1010D000C8004000EAECFF1F431E052B30B532D894
:1010E0004001194A40F01000101872B6174CE25C2B
:1010F000032A09D8DFE802F0160218050830022298
:1011000013E00830042210E01148124A50F823403E
:1011100014B940F8231002E052F82300416042F86D
:1011200023100FE0032200E00522E25410F0080F24
:1011300001F108030A8843600CBF8823C82343EAEF
:101140000243036062B630BD00E0FF1F0CECFF1FDE
:10115000B0ECFF1FC8ECFF1F2DE9F74FA34EA44CC6
:10116000357805F00403DBB2ABB1A24B1B7883B139
:10117000A14A137823B1013BDBB2137003B900BE5F
:101180009E4A13782BB1013BDBB213700BB9FFF70A
:10119000B7FC0423337005F00802D2B2002A00F035
:1011A0007B82974B1B781D094FEA930940F0F98128
:1011B00054F8392004EBC903C2F38302013A5B6897
:1011C0000C2A00F2EB81DFE812F0A001A001E90196
:1011D000E901E901E901E901E901C001E901E901E8
:1011E000E9010D001A6887495B68874D4B60874BA2
:1011F0000A6044F83930864B0020186001232B70B8
:1012000092B240F28165AA422061A06117D8B2F57E
:10121000D06F80F02881B2F5817F00F0D58006D8AC
:10122000802A00F0BB80822A40F03581BAE040F28B
:1012300002339A4200F00881B2F5A06F10E0B2F5D7
:10124000106F10D004D8B2F5086F40F02481A0E0F0
:1012500040F621139A4200F0558103F580739A42BB
:1012600040F019811BE18A78624B614D1A702B6A3C
:10127000180603D5686A083800F0EAFA65490835A7
:101280008D42F4D1DFF8B491DFF8B4B10025A8465F
:10129000CA4655F8090005E04368009300F0D8FA03
:1012A000009B18460028F7D15B4B4AF8050045F82B
:1012B0000B00E85807E042680093019200F0C8FA7A
:1012C000019A009B10460028F5D15851534BE85025
:1012D000534B23F81800534B18F80320023A032A03
:1012E00008D8DFE802F002040204002200E0012234
:1012F00003F8082008F101080435B8F1060FC8D139
:10130000494BDFF8409100221A7001259846474B5F
:1013100005EB0902EB1812F8012C9B001A7002F081
:101320000802D2B23AB300F075FAAB0038B104EB60
:101330004512083050603E4A44F8332006E044F835
:10134000330098F80030013388F8003000F062FA7A
:10135000AB0043F0010338B104EBC3020830506026
:101360002A4A44F8332006E044F8330098F8003065
:10137000013388F80030AA0042F00201013542F042
:1013800003020023072D44F8313044F83230BED137
:1013900029E0184A274D12782A7083E0254D2870DD
:1013A00068707EE08A88062A00D974E09100224A9B
:1013B000204D8A1828706870127802F00202D2B2AA
:1013C000002A6ED02B706CE08A8802F07F03062B17
:1013D00061DC4B8803B15EE09100174A8A181178EE
:1013E00021F0020111701D465CE000BF8020074023
:1013F00000E0FF1FF3ECFF1F6DECFF1FFCEAFF1F77
:1014000090200740E0ECFF1FF4ECFF1FC8004000F5
:10141000F0EBFF1FA8E0FF1FB0ECFF1FC8ECFF1FA1
:101420000CEEFF1F0CECFF1FEAECFF1F30C8011091
:1014300088004000EBECFF1FC020074054ECFF1F6A
:10144000F4EBFF1F842800008A8802F07F03062B3C
:1014500021DC4B8803B11EE09100A04A8A18117864
:1014600041F00201BEE74A889D4B898853F8085C29
:10147000A3F10C007DB133F80CCC944509D133F8BD
:101480000ACC8C4505D1120A032A0CBF2B7803899C
:1014900008E00C33EAE7914B0F221A7032E0002388
:1014A000A1E702238F4AB2F806904B4538BF994610
:1014B000B9F1400F34BFC8464FF0400828464146B6
:1014C000FFF77CFDB9EB0809454403D1B8F1400FA3
:1014D00007D017E0B9F1400F34BFC8464FF04008BD
:1014E00000E0C84628464146FFF768FDB9EB080909
:1014F000454402D1B8F1400F04D17B4B7B4A1D60BB
:10150000A2F8009001227A4B47E0764A79481168A8
:10151000814216D15168784A914212D11A78A92A8B
:101520000FD15A78452A0CD19A78C22A09D1DB7892
:101530006B2B06D1714B0020052201461A70FFF774
:101540003DFD6F4B44F8393028E0674BD3F80080FD
:10155000B8F1000F18D0DFF89491B9F800A0BAF1F3
:10156000400F34BF5546402540462946FFF726FD2B
:10157000C5EB0A039BB2A9F800300BB9402D01D18D
:1015800008EB0503584A1360564B1A88B2F5A06F52
:1015900004D100225A709A785A4B1A700122544B87
:1015A0006DE004EBC90803F00803D8F80420013DFE
:1015B000D9B2A2F10800EDB2002937D000F048F905
:1015C0005148524B50F82510F1B14A6840F8252097
:1015D00001F10802C8F804205A5D032A0BD8DFE89D
:1015E00002F002040608032204E0022202E00522BF
:1015F00000E004225A5518F0080F0A880CBF88230F
:10160000C82343EA024342E05A5D032A07D8DFE8D1
:1016100002F040400204002206E0012204E018F03B
:10162000080F0CBF022203225A5532E054F8393019
:101630001B0C22F8083C23B322F8061C42F8041CB9
:10164000334A344952F8257017B942F8250002E0B0
:1016500051F825205060304A41F8250032F8151025
:101660005B1822F8153000F0D5F818B10830C8F82A
:10167000040006E0294B44F839001A7801321A7048
:1016800007E01F4B264A18F0080F08BF134644F81E
:1016900039300823337063E5E90751D514492048F0
:1016A000204C02230B70204B1A70204B186098605E
:1016B0001F481A61D8609A615C60084B0D20187051
:1016C0001C48FF23037000F8083C02741A4A137088
:1016D0001A4B9F221A7001230B704AE0C02007406A
:1016E00098280000E0ECFF1FF0EBFF1FE8ECFF1F65
:1016F0009420074021090003010004006DECFF1F46
:10170000C800400098200740B0ECFF1F0CECFF1F02
:1017100054ECFF1FF4EBFF1F0CEEFF1FEAECFF1F62
:101720008800400014ECFF1F6CECFF1F00E0FF1F5F
:1017300070ECFF1F882007408C2007408420074062
:101740002B0605D50C4B0D221A70802203F8402C75
:1017500005F00203DBB22BB1084B1A781A70022293
:1017600003F8082C05F01005EDB215B1044B10225A
:101770001A70BDE8FE8F00BFC020074088200740D8
:101780008020074008B5FFF7E9FB00231B491A46F4
:101790005A50C8180833C82B4260F9D1184B1A6840
:1017A00042F480221A60174B80221A701978154A69
:1017B0000906FBD4114B1449C3F307200870C3F387
:1017C00007401B0E08750B76FF2301F81C3C01F83F
:1017D000143C01F88C3C137843F040031370002153
:1017E000012302F8783C02F80C1C02F8883C074BF5
:1017F00008221A60064B10221A7008BD00E0FF1F75
:10180000348004400C2107409C20074004E100E0A4
:101810000821074072B60C4A1168B1FA81F30B2B0C
:1018200002D962B6002070474FF0004020FA03F062
:1018300021EA0001116062B6044948225343C818E6
:101840000022CA504260704738E5FF1FE0E0FF1FEA
:101850000C4B4822C31AB3FBF2F30B2B11D80A4AE4
:10186000127822B1094A12780AB1FFF7F7BB72B6B3
:10187000074A4FF0004121FA03F311681943116040
:1018800062B67047E0E0FF1FEAECFF1FF3ECFF1FBA
:1018900038E5FF1F10B50023B0FBF2F402FB140083
:1018A000092801D8303000E03730C85420460CB148
:1018B0000133F1E7CA185470224605E0885CCC5C1D
:1018C0008C54C8540132013B9A42F7DB084610BDE4
:1018D0000E4B1B681A0570B5064616D50C4B0D4D00
:1018E0001C780134272C88BF002401E0FFF74CFA54
:1018F0002B78A342FAD0084B1E55084B01221A70D0
:10190000034B1C70064BAC221A7070BD348004402F
:1019100061EDFF1F60EDFF1FF7ECFF1FF5ECFF1FF0
:1019200003B0064038B54518044603E014F8010B2F
:10193000FFF7CEFFAC42F9D138BDFFFF10B5044C24
:1019400001E0FFF721FA2378002BFAD110BD00BF88
:10195000F5ECFF1F044B1878044B1B78984238BFF6
:101960004030C01A704700BF5FEDFF1FF6ECFF1F4D
:10197000084B094A19781378994208D00133DBB231
:101980003F2B88BF00230549C85C137070474FF098
:10199000FF3070475FEDFF1FF6ECFF1F1FEDFF1FCD
:1019A000054B1A78054B1B789A4202D0044AD05C4A
:1019B00070474FF0FF3070475FEDFF1FF6ECFF1FE1
:1019C0001FEDFF1F10B5224B1B7803F02003DBB285
:1019D0007BB1204B204A1878137820490133DBB2C1
:1019E00009783F2B88BF00238B4202D01C49C85482
:1019F00013701C490B7818465BB2002B16DA144B97
:101A00001B781B0612D5184B184A1C7813789C4279
:101A100002D16C230B7009E00133DBB2272B88BFA6
:101A200000231349CC5C0B490C70137000F0400389
:101A3000DBB25BB1064B1B7803F04003DBB22BB18A
:101A40000C4B00221A70074B2C221A7010BD00BFDD
:101A500004B0064007B006405FEDFF1FF6ECFF1F25
:101A60001FEDFF1F03B0064061EDFF1F60EDFF1F7C
:101A7000F7ECFF1FF5ECFF1F1C4B60221A70E122F0
:101A80005A701B4B1B4A19781B4B082901D10121A5
:101A900002E00A2903D139211160132206E00C2942
:101AA00001D1352100E03D21116012221A60134B53
:101AB0001A78134B02B101221A60124B1A78124B9A
:101AC000012A01D880220CE0042A01D8842208E0EF
:101AD000082A01D8852204E0102A01D8862200E0D5
:101AE00087221A60094B01221A7070470040074094
:101AF0003CE5FF1F08B003400CB0034063EDFF1F3F
:101B000020B003403DE5FF1F24B0034062EDFF1FFE
:101B1000F0B505468BB022B90368C9B21B68984777
:101B20002CE0012A08BF0A2221B930228DF8252095
:101B3000212413E02124B1FBF2F002FB1011C9B201
:101B4000092901D8303100E037310AAF3E1906F8D3
:101B5000241C014610B1013CE4B2ECE733B1013C76
:101B60000AAAE4B213192D2203F8242C2B6801AF22
:101B70005B6828463919C4F1220298470BB0F0BDC2
:101B800008461146FEF71EBF0846FEF78BBFFEF75C
:101B900093BFFEF7CFBEFEF7A3BEFEF7E9BEFFFF81
:101BA000044B00221A711A73034A4FF47A71996038
:101BB0001A60704764EDFF1F1829000008B5034B39
:101BC00001221A60024B1B68984708BD0C71034044
:101BD0007CEDFF1F08B5034B01221A60024B5B68C6
:101BE000984708BD1C7103407CEDFF1F08B5034BEF
:101BF00001221A60024B9B68984708BD2C71034074
:101C00007CEDFF1F08B5034B01221A60024BDB6815
:101C1000984708BD3C7103407CEDFF1F054B012236
:101C20001A60054B1A6822F400021A60034B002266
:101C30001A707047007003403C80044078EDFF1F2D
:101C4000037B0122591103F01F0302FA03F3084A30
:101C500042F821308268002313604178054A5354CA
:101C6000D15C21B90133042BFAD1FFF7D7BF7047FC
:101C700080E100E074EDFF1F037810B504460BB15E
:101C8000FFF7DEFF0023237010BD10B50446FFF7F9
:101C9000F3FF204610BDFFFF03480449044A002318
:101CA000037000F0ABB800BF8CEDFF1F8B1C000071
:101CB00040E4FF1F10B5084614461146FFF790F8A0
:101CC000204610BD084608B5FFF760F8012008BDA2
:101CD000FFF792B8FFF7AAB8FFF7C0B8FFF798B8B8
:101CE00010B5084614461146FEF752FF204610BDB7
:101CF000084608B5FEF722FF012008BDFEF786BFA3
:101D0000FEF79EBFFEF7B4BFFEF78CBF044B002268
:101D10001A711A73034A4FF47A7199601A60704706
:101D2000A0EDFF1F382900002DE9F04100240746EF
:101D30000D4626463B190A22197928460023FFF74B
:101D4000E7FE2B6880462E211B6828469847013401
:101D50004044032C0644EDD12846F9790A22002399
:101D6000FFF7D6FE8019BDE8F081FFFF044B054A5E
:101D70001A6000221A715A719A71DA71704700BFA5
:101D8000B0EDFF1F58290000044B00221A711A738E
:101D9000034A4FF47A7199601A607047B8EDFF1FDB
:101DA0006829000008B5FEF797FBFEF799FBFEF7E0
:101DB000EBFFFAE710B5084614461146FFF7B2FDEF
:101DC000204610BD084608B5FFF782FD012008BD7A
:101DD000FFF7B4BDFFF7CCBDFFF7E2BDFFF7BABD1B
:101DE000044B00221A711A73034A4FF47A719960F6
:101DF0001A607047C8EDFF1F882900000346084697
:101E0000194600F001B800BF30B405460C46134631
:101E100002202946224630BC00F020BB70B542F6B5
:101E2000B41642F6B415C0F20006C0F20005761BE7
:101E3000B61007D0043D002455F8043F01349847FC
:101E4000A642F9D142F6D01642F6B415C0F2000609
:101E5000C0F20005761B00F0A7FDB61008D0043DC7
:101E6000002455F8043F01349847A642F9D170BDCB
:101E700070BD00BF4EF240530146C1F6FF731868B3
:101E800000F008B84EF240530146C1F6FF731868DF
:101E900000F0A6BB2DE9F04F01F10B04162C83B026
:101EA000074630D924F00704E30F8C422CBF1946B3
:101EB00043F0010100292FD1384600F0B7FAB4F5FC
:101EC000FC7F2ED24FEAD40C4EF23466C1F6FF7678
:101ED00006EBCC02D368934200F01182596803F1FB
:101EE0000808DA68384621F0030499681B195C6811
:101EF000CA6044F0010491605C6000F099FA4046C9
:101F000003B0BDE8F08F002310248C422CBF19468B
:101F100043F001010029CFD00C234FF000083B60B3
:101F2000EDE75FEA542C04BF4FEAD40C4FEA4C05AE
:101F300040F08F804EF23466C1F6FF7606EB8505E1
:101F4000EB689D4206D10DE0002A80F25581DB68E6
:101F50009D4207D0596821F003010A1B0F2AF3DDC7
:101F60000CF1FF3C0CF1010C4EF234623369C1F606
:101F7000FF7202F1080E734508BFD2F8049022D018
:101F8000586820F00300011B0F2900F38481002909
:101F9000C2F814E0C2F810E066DAB0F5007F80F015
:101FA0004E81C1084FF0010802EBC100891008FA08
:101FB00001F851688568D86048EA0109C2F80490C0
:101FC0009D60EB60836001224FEAAC0302FA03F3E9
:101FD0004B4554D819EA030F0DD193402CF0030C54
:101FE00019EA030F0CF1040C05D15B000CF1040C91
:101FF00019EA030FF9D006EBCC09E0464846C2685F
:10200000904207D15BE1002980F28381D26890423F
:1020100000F05581556825F00305291B0F29F2DDD5
:1020200090461319D56844F0010058F8084F41F064
:10203000010C50603846C3F804C0E560AC607361C1
:102040003361C3F80CE0C3F808E0595000F0F0F930
:1020500055E7BCF1040F00F2DE804FEA941C0CF14E
:10206000380C4FEA4C0565E71A1803F108083846A2
:10207000536843F00103536000F0DAF93FE7B568B5
:102080006B6823F0030A544504D8C4EB0A030F2BF2
:1020900000F3A4804EF6D859D6F80814C1F6FF799B
:1020A00005EB0A020131D9F80030234408BF03F1DF
:1020B000100B06D003F580530F3323F47F6323F016
:1020C0000F0B38465946019200F0B4F9019A411CB1
:1020D000804600F06881824200F23181D9F80430F4
:1020E00042455B44C9F8043000F06681D6F8081414
:1020F0004EF23460C1F6FF70013117BFC2EB080227
:10210000C0F808849B18C9F8043018F00703384653
:102110001FBFC3F10802C3F58053904403F10802C6
:1021200008EB0B0308BF4FF480521B051B0DC3EBDC
:10213000020B594600F07EF9431C00F04981C8EBC0
:102140000001594441F00101D9F80430B5424EF67E
:10215000D852C6F808805B44C1F6FF72C8F8041074
:10216000C9F8043018D0BAF10F0F40F20B81AAF170
:102170000C00696820F007004FF0050C05EB000E1D
:102180000F2801F0010140EA01016960CEF804C0A6
:10219000CEF808C000F220814EF6D852D9F82C10A3
:1021A000C1F6FF72B5688B42D9F8301088BFD36290
:1021B0004EF6D852C1F6FF728B4288BF13636A682D
:1021C00022F003029442C4EB020301D80F2B05DC7A
:1021D00038464FF0000800F02BF990E62A1943F03A
:1021E000010344F0010438466C6005F108085360AF
:1021F000B26000F01DF982E65918DA689C6838462A
:102200004D6803F1080845F00105E26094604D60F7
:1022100000F00EF973E6BCF1140F9CBF0CF15B0CDF
:102220004FEA4C057FF686AEBCF1540F00F2938066
:102230004FEA143C0CF16E0C4FEA4C057AE6420A68
:10224000042A75D9142A9CBF02F15B094FEA49059B
:1022500008D9542A00F2C9804FEA103909F16E09F1
:102260004FEA490506EB85054EF23468C1F6FF7862
:10227000AA68AA4279D0516821F00301884202D2AB
:1022800092689542F7D1D068D6F80490D8609A60E9
:10229000D360836097E61D1941F00106556144F053
:1022A0000104156138465C6003F10808C5F80CE0CC
:1022B000C5F808E06E60695000F0BAF81FE608F152
:1022C0000108083018F0030F7FF499AE4A461CF05D
:1022D000030FA2F108010CF1FF3C00F09E80126890
:1022E0008A42F4D072685B0093423FF6C8AE002B7E
:1022F0003FF4C5AE1A4200F09580C4467BE603F178
:1023000008025B699A4208BF0CF1020C3FF42CAE44
:10231000E4E590465519D368384658F8082F69689F
:10232000D36041F001019A60696000F081F8E6E550
:102330004FEA901909F138094FEA490592E7B54289
:102340004EF23463C1F6FF733FF4C8AE9D686A680D
:1023500022F0030236E7BCF5AA7F19D84FEAD43C35
:102360000CF1770C4FEA4C05E4E50125D8F8041090
:102370004FEAA909104605FA09F545EA0109C8F826
:10238000049083E701234546C8F80430002219E78A
:1023900040F254539C450BD84FEA944C0CF17C0C02
:1023A0004FEA4C05C6E5B5686A6822F0030209E702
:1023B000FC254FF07E0CBDE51105090D00297FF4C9
:1023C00095AEB2680BEB0A0141F001015160E3E602
:1023D00001214FF0000BB7E6384605F108010192E4
:1023E00000F0FEF8019A5368D6E6B2F5AA7F06D847
:1023F0004FEAD03909F177094FEA490532E740F24F
:102400005451FC258A424FF07E099EBF4FEA904905
:1024100009F17C094FEA490524E7726822EA0302C0
:10242000726060E75B0008F1040863E7704700BF73
:10243000704700BF38B54EF61864C1F6FF74054604
:10244000084600232360FEF781FD431C00D038BD01
:102450002368002BFBD02B6038BD00BF2DE9F04175
:1024600042F6A014C0F2000484B007462568AC6CA4
:10247000002C42D066681F2E1ADD41F67564C0F24A
:10248000000424B94FF0FF3004B0BDE8F0818C2087
:10249000039102920193FFF7EDFC0399029A019BCD
:1024A00004460028EED0A86C002684E84100AC6405
:1024B000DFB1D4F8886026B3D6F8008165680120C2
:1024C000022F05F1200C00FA05F046F8252048EA15
:1024D000000246F82C3008BFD6F80431C6F80021B7
:1024E00004BF1843C6F8040100E06568AB1C002077
:1024F0000135656044F82310C6E705F14C04AC646F
:10250000B8E741F67560C0F200000028BAD04FF479
:102510008470039102920193FFF7ACFC0399029A35
:10252000019B06460028ADD00020C6F80001C6F881
:1025300004018046C4F88860C0E700BFF8B54EF2D9
:102540003464C1F6FF740F460546FFF76FFFA368BA
:102550005E6826F0030606F6EF73DF1B3F0B013FB4
:102560003F03B7F5805F07DB00212846FFF762FFD6
:10257000A3689B19984204D02846FFF759FF002012
:10258000F8BD79422846FFF755FF013010D04EF6CE
:10259000DC53A168C1F6FF73F61B284646F001061E
:1025A0001A684E60D71B1F60FFF742FF0120F8BD7D
:1025B00000212846FFF73EFFA368C21A0F2ADBDD81
:1025C0004EF63C244EF6DC51C1F6FF74C1F6FF71A5
:1025D00042F001025A602368C01A0860CCE700BFCD
:1025E0002DE9F0410E46804600295CD0FFF71EFF22
:1025F0004EF2346556F8041CC1F6FF75A6F10804C6
:1026000021F00103AF68E2189742506820F0030000
:1026100067D011F00101506035D00021161876689E
:1026200016F0010F06D11B18906800294DD0D26812
:10263000C260906043F00102E3506260F1B9B3F50B
:10264000007F32D35A0A042A6CD8980938304100E6
:1026500005EB81054EF23461C1F6FF71AA68AA420A
:102660006BD0516821F003018B4202D292689542EF
:10267000F7D1D368E360A260D4609C604046BDE8B7
:10268000F041FFF7D5BE56F8086C05F1080CA41B05
:102690009B19A668664543D0D4F80CC0C6F80CC098
:1026A000CCF80860BAE7BDE8F081DB080121686872
:1026B00005EBC3029B1001FA03F3E2609168184333
:1026C0006860A160CC609460D8E7294EB042AED17A
:1026D0006C6143F001022C61E060A0606260E35035
:1026E000CCE7C018CB0707D456F8083CE41AC0184A
:1026F000A268E368D3609A604EF6402240F001037E
:10270000C1F6FF726360AC6013689842B6D34EF6B0
:10271000D8534046C1F6FF731968FFF70FFFADE7C6
:1027200001217BE702F15B004100142A90D9542A71
:102730000CD8180B6E3041008AE701264D688010D6
:10274000134606FA00F005434D6093E7B2F5AA7F01
:1027500003D8D80B773041007AE740F254518A42CF
:1027600003D8980C7C30410072E7FC217E206FE793
:102770003CE6FF1F4008FE4340A004404408FE43DF
:1027800044A004400018FE4300C004403000FE4353
:10279000309004403400FE43349004401C18FE4343
:1027A0001CC004401018FE4310C004400818FE432B
:1027B00008C004400C18FE430CC004400C10FE433B
:1027C0000CB004401010FE4310B004401810FE433B
:1027D00018B004401C10FE431CB004401410FE430B
:1027E00014B004400418FE4304C004400010FE432B
:1027F00000B004400008FE4300A004400408FE436B
:1028000004A004400C08FE430CA004400808FE434A
:1028100008A004401418FE4314C004401818FE43D6
:1028200018C004400410FE4304B004400810FE43E6
:1028300008B004401400FE43149004404C08FE43CA
:102840004CA004400420FE4304D004402410FE4366
:1028500024B004402010FE4320B004402810FE4362
:1028600028B004402C10FE432CB004400020FE434E
:1028700000D004404808FE4348A004401000FE4336
:1028800010900440151915190000FFFF0001000009
:1028900048E4FF1F120000000002000072E4FF1F66
:1028A0004900000000220100BBE4FF1F21000000DE
:1028B00000210100A4E4FF1F090000000022000025
:1028C000DCE4FF1F1C0000000021000084E4FF1F67
:1028D00009000000000300001EE5FF1F00000000CB
:1028E000010309045AE4FF1F000000000203090469
:1028F000F8E4FF1F000000000303090422E5FF1FA6
:1029000000000000000000000000000000000000C7
:102910000000000000000000891B0000811B000077
:102920009B1B0000971B0000931B00008F1B0000E7
:102930000000000000000000C51C0000B51C0000E5
:10294000DD1C0000D51C0000D91C0000D11C0000BB
:102950000000000000000000291D00000000000031
:102960000000000000000000F11C0000E11C00005D
:10297000091D0000011D0000051D0000FD1C0000D8
:102980000000000000000000C51D0000B51D000093
:10299000DD1D0000D51D0000D91D0000D11D000067
:1029A00044E5FF1F43000000F8B500BFF8BC08BCB9
:1029B0009E46704799040000A11B0000991C00006E
:1029C0000D1D00006D1D0000891D0000E11D0000AF
:1029D000000000001CEEFF1F12010002000000407A
:1029E000C0168604000101020301180354006500AB
:1029F00065006E00730079006400750069006E0068
:102A00006F0009024900020100C0320904000002FF
:102A100003000000092111010001221C00070583A9
:102A200003400001070504034000010904010002FE
:102A30000300000009211101000122210007058186
:102A4000034000010705020320000206C9FF090434
:102A5000A15C7508150026FF009540097581029557
:102A6000200976910295040976B102C006ABFF0AEF
:102A70000002A1017508150026FF0095400901819B
:102A800002954009029102C02603540065006500CA
:102A90006E00730079006400750069006E006F00BD
:102AA0002000520061007700480049004400040300
:102AB00009040C03000000000000000000000000FA
:102AC0000000000000000000FFFFFFFF0A040000FC
:102AD00044E5FF1F000000000000000000000000AF
:102AE00000000000000000000000000000000000E6
:102AF00000000000A4290000000000000000000009
:102B000000000000000000000000000000000000C5
:102B100000000000000000000000000000000000B5
:102B200000000000000000000000000000000000A5
:102B30000000000000000000000000000000000095
:102B40000000000000000000000000000000000085
:102B50000000000000000000000000000000000075
:102B60000000000000000000000000000000000065
:102B70000000000000000000000000000000000055
:102B80000000000000000000000000000000000045
:102B90000000000000000000000000000000000035
:102BA0000000000000000000000000000000000025
:102BB0000000000000000000000000000000000015
:102BC00000000000000000000000000034E6FF1FCD
:102BD00034E6FF1F3CE6FF1F3CE6FF1F44E6FF1FF5
:102BE00044E6FF1F4CE6FF1F4CE6FF1F54E6FF1FA5
:102BF00054E6FF1F5CE6FF1F5CE6FF1F64E6FF1F55
:102C000064E6FF1F6CE6FF1F6CE6FF1F74E6FF1F04
:102C100074E6FF1F7CE6FF1F7CE6FF1F84E6FF1FB4
:102C200084E6FF1F8CE6FF1F8CE6FF1F94E6FF1F64
:102C300094E6FF1F9CE6FF1F9CE6FF1FA4E6FF1F14
:102C4000A4E6FF1FACE6FF1FACE6FF1FB4E6FF1FC4
:102C5000B4E6FF1FBCE6FF1FBCE6FF1FC4E6FF1F74
:102C6000C4E6FF1FCCE6FF1FCCE6FF1FD4E6FF1F24
:102C7000D4E6FF1FDCE6FF1FDCE6FF1FE4E6FF1FD4
:102C8000E4E6FF1FECE6FF1FECE6FF1FF4E6FF1F84
:102C9000F4E6FF1FFCE6FF1FFCE6FF1F04E7FF1F33
:102CA00004E7FF1F0CE7FF1F0CE7FF1F14E7FF1FE0
:102CB00014E7FF1F1CE7FF1F1CE7FF1F24E7FF1F90
:102CC00024E7FF1F2CE7FF1F2CE7FF1F34E7FF1F40
:102CD00034E7FF1F3CE7FF1F3CE7FF1F44E7FF1FF0
:102CE00044E7FF1F4CE7FF1F4CE7FF1F54E7FF1FA0
:102CF00054E7FF1F5CE7FF1F5CE7FF1F64E7FF1F50
:102D000064E7FF1F6CE7FF1F6CE7FF1F74E7FF1FFF
:102D100074E7FF1F7CE7FF1F7CE7FF1F84E7FF1FAF
:102D200084E7FF1F8CE7FF1F8CE7FF1F94E7FF1F5F
:102D300094E7FF1F9CE7FF1F9CE7FF1FA4E7FF1F0F
:102D4000A4E7FF1FACE7FF1FACE7FF1FB4E7FF1FBF
:102D5000B4E7FF1FBCE7FF1FBCE7FF1FC4E7FF1F6F
:102D6000C4E7FF1FCCE7FF1FCCE7FF1FD4E7FF1F1F
:102D7000D4E7FF1FDCE7FF1FDCE7FF1FE4E7FF1FCF
:102D8000E4E7FF1FECE7FF1FECE7FF1FF4E7FF1F7F
:102D9000F4E7FF1FFCE7FF1FFCE7FF1F04E8FF1F2E
:102DA00004E8FF1F0CE8FF1F0CE8FF1F14E8FF1FDB
:102DB00014E8FF1F1CE8FF1F1CE8FF1F24E8FF1F8B
:102DC00024E8FF1F2CE8FF1F2CE8FF1F34E8FF1F3B
:102DD00034E8FF1F3CE8FF1F3CE8FF1F44E8FF1FEB
:102DE00044E8FF1F4CE8FF1F4CE8FF1F54E8FF1F9B
:102DF00054E8FF1F5CE8FF1F5CE8FF1F64E8FF1F4B
:102E000064E8FF1F6CE8FF1F6CE8FF1F74E8FF1FFA
:102E100074E8FF1F7CE8FF1F7CE8FF1F84E8FF1FAA
:102E200084E8FF1F8CE8FF1F8CE8FF1F94E8FF1F5A
:102E300094E8FF1F9CE8FF1F9CE8FF1FA4E8FF1F0A
:102E4000A4E8FF1FACE8FF1FACE8FF1FB4E8FF1FBA
:102E5000B4E8FF1FBCE8FF1FBCE8FF1FC4E8FF1F6A
:102E6000C4E8FF1FCCE8FF1FCCE8FF1FD4E8FF1F1A
:102E7000D4E8FF1FDCE8FF1FDCE8FF1FE4E8FF1FCA
:102E8000E4E8FF1FECE8FF1FECE8FF1FF4E8FF1F7A
:102E9000F4E8FF1FFCE8FF1FFCE8FF1F04E9FF1F29
:102EA00004E9FF1F0CE9FF1F0CE9FF1F14E9FF1FD6
:102EB00014E9FF1F1CE9FF1F1CE9FF1F24E9FF1F86
:102EC00024E9FF1F2CE9FF1F2CE9FF1F34E9FF1F36
:102ED00034E9FF1F3CE9FF1F3CE9FF1F44E9FF1FE6
:102EE00044E9FF1F4CE9FF1F4CE9FF1F54E9FF1F96
:102EF00054E9FF1F5CE9FF1F5CE9FF1F64E9FF1F46
:102F000064E9FF1F6CE9FF1F6CE9FF1F74E9FF1FF5
:102F100074E9FF1F7CE9FF1F7CE9FF1F84E9FF1FA5
:102F200084E9FF1F8CE9FF1F8CE9FF1F94E9FF1F55
:102F300094E9FF1F9CE9FF1F9CE9FF1FA4E9FF1F05
:102F4000A4E9FF1FACE9FF1FACE9FF1FB4E9FF1FB5
:102F5000B4E9FF1FBCE9FF1FBCE9FF1FC4E9FF1F65
:102F6000C4E9FF1FCCE9FF1FCCE9FF1FD4E9FF1F15
:102F7000D4E9FF1FDCE9FF1FDCE9FF1FE4E9FF1FC5
:102F8000E4E9FF1FECE9FF1FECE9FF1FF4E9FF1F75
:102F9000F4E9FF1FFCE9FF1FFCE9FF1F04EAFF1F24
:102FA00004EAFF1F0CEAFF1F0CEAFF1F14EAFF1FD1
:102FB00014EAFF1F1CEAFF1F1CEAFF1F24EAFF1F81
:102FC00024EAFF1F2CEAFF1F2CEAFF1FFFFFFFFF71
:042FD00000000200FB
:00000001FF
