:10000000E8C0000001C10000FFC00000FDC000000A
:10001000FBC00000F9C00000F7C00000F5C0000000
:10002000F3C00000F1C00000ECC100002AC20000D3
:10003000EBC00000E9C00000E7C00000E5C0000020
:10004000E3C00000E1C00000DFC00000DDC0000030
:10005000DBC00000D9C00000D7C00000D5C0000040
:10006000D3C00000D1C00000CFC00000CDC0000050
:10007000CBC00000C9C00000C7C00000C5C0000060
:10008000C3C00000C1C00000BFC00000BDC0000070
:10009000BBC00000B9C000004284A4830124C30493
:1000A0000274A344C282E364D4430381231463949F
:1000B000B4C40A000A002064697400206461680006
:1000C0004368617220000A004F7070732C20756EB7
:1000D000737570706F7274656420636861726163B8
:1000E0007465723A200053706163650A00444F459D
:1000F0005320414E59424F4459205354494C4C20AF
:100100004B4E4F57204D4F52534520434F44453F90
:1001100000534F5300000100004C01120002000088
:100120005E01220022000080011500210000700104
:100130000900030000950104010309049901140258
:10014000030904AF0120000001C1260012010002D2
:1001500000000020C016790400010102000109021C
:100160002200010100C03209040000010300000068
:100170000921110100012215000705830320000158
:100180000631FF0974A1537508150026FF0095205C
:1001900009758102C004030904140359006F007536
:1001A00000720020004E0061006D0065000000201C
:1001B0000359006F00750072002000550053004283
:1001C00000200044006500760069006300650000BF
:1001D000000011241FBECFEFD0E1DEBFCDBF11E084
:1001E000A0E0B1E0E4E6F7E002C005900D92A03097
:1001F000B107D9F711E0A0E0B1E001C01D92A33032
:10020000B107E1F779D0ACC2FBCE0F931F93CF9328
:10021000DF93182F803269F486EE90E08DD280EE65
:1002200095E120E931E0F9013197F1F70197D9F72C
:100230004EC081548A3148F088EC90E07DD2812F05
:100240009AD086EC90E078D242C080EC90E074D2F4
:10025000812F91D08AE38FD0E12FF0E0E95AFF4F50
:10026000E4910E2F07701E2FC0E9D1E022C05E98E6
:1002700017FF0BC08BEB90E05FD280E699E0FE01A8
:100280003197F1F70197D9F70AC086EB90E054D285
:1002900080E293E0FE013197F1F70197D9F75E9A7A
:1002A00080E293E0FE013197F1F70197D9F7110F42
:1002B00001500023E1F684EB90E03ED280E496E02A
:1002C00020E931E0F9013197F1F70197D9F7DF9192
:1002D000CF911F910F910895CF93DF93EC01FE0111
:1002E00021968491882311F090DFF9CF82EB90E082
:1002F00023D2DF91CF9108951F93CF93DF9380E8AE
:100300008093610010926100569A5E9A1DD010E0B1
:10031000C0E9D1E00BC081E191E0DEDF88E99AE33A
:10032000FE013197F1F70197D9F71F5F163098F367
:100330008DEE90E0D1DF80E49CE9FE013197F1F78A
:100340000197D9F710E0E7CF81E88093D70080EAE2
:100350008093D8008AE189BD09B400FEFDCF80E911
:100360008093D8001092E000109200018CE08093FE
:10037000E20078940895482F80910001882309F4C1
:100380003EC02FB7F89483E08093E900809102018A
:10039000882341F08091E80085FD02C02FBF12C084
:1003A000109202019091E4009C5F33E08091E8009C
:1003B00085FD13C02FBF8091E400891729F481E0E7
:1003C000809302018FEF0895809100018823B9F096
:1003D0002FB7F8943093E900E9CF4093F100809172
:1003E000E80085FD06C08AE38093E80010920101D1
:1003F00003C082E0809301012FBF80E008958FEF5A
:1004000008951F920F920FB60F9211248F939F930E
:100410008091E1001092E100982F83FF0FC01092AD
:10042000E90081E08093EB001092EC0082E280937F
:10043000ED0088E08093F0001092000192FF1AC056
:10044000809100018823B1F080910101882391F00F
:10045000815080930101882369F483E08093E9004F
:1004600002C01092F1008091E80085FDFACF8AE386
:100470008093E8009F918F910F900FBE0F901F9077
:1004800018951F920F920FB60F9211242F933F933E
:100490004F935F936F937F938F939F93AF93BF938C
:1004A000CF93DF93EF93FF931092E9008091E800E0
:1004B00083FF2CC14091F1003091F1008091F10057
:1004C000A82FB0E02091F100922F80E0A82BB92B4B
:1004D0008091F100682F70E02091F100922F80E070
:1004E000682B792B8091F100C82FD0E02091F1008A
:1004F000922F80E0C82BD92B82EF8093E800363012
:1005000009F056C02CE131E0A90145505040F901F5
:100510003797859194918A179B07E1F4FA018591A9
:10052000949186179707B1F49A012E5F3F4FF90116
:10053000659174912E5F3F4FF9012491CE01CF3F19
:10054000D10519F010F08FEF90E0422F821758F488
:10055000482F09C0295F3F4F495F5F4FF1E02D34BD
:100560003F07A9F6D3C05EEF8091E800282F30E066
:10057000C90185709070892BB9F322FDCAC0342F50
:10058000413208F030E2232FCB0106C0FC01019676
:10059000E491E093F10021502223C1F7630F711D14
:1005A000431B5093E8004423F9F63032E9F2B1C01E
:1005B000353061F48EEF8093E8008091E80080FF91
:1005C000FCCF8A2F80688093E300A3C0393031F5D7
:1005D000442309F09BC0A09300018EEF8093E800B4
:1005E00086E491E021E02093E900FC010196E4918A
:1005F000E093EB00EE2369F0AC014F5F5F4FFC012D
:1006000084918093EC00CA010196FA0134913093F1
:10061000ED002F5F253039F78EE14DC0383061F4A1
:10062000403809F073C08091E80080FFFCCF8091D2
:1006300000018093F1001BC03323E9F48091E800AE
:1006400080FFFCCF423811F080E00DC06093E900DC
:100650008091EB0090E025E0969587952A95E1F74B
:1006600081701092E9008093F1001092F1008EEFFA
:100670008093E8004EC0313019F0333009F046C0A5
:100680004230F1F4AB2BE1F4262F2F77822F8150EB
:100690008430B0F48EEF8093E8002093E90033308B
:1006A000A9F189E18093EB0081E090E002C0880F1E
:1006B000991F2A95E2F78093EA001092EA0029C078
:1006C000313021F5413A11F5672B01F54C2F5EEFE2
:1006D0008091E800282F30E0C90185709070892B47
:1006E000B9F322FD16C0942F413208F090E2892F11
:1006F00003C01092F10081508823D9F7491B509311
:10070000E800442329F7903219F303C081E2809373
:10071000EB00FF91EF91DF91CF91BF91AF919F914E
:100720008F917F916F915F914F913F912F910F909A
:100730000FBE0F901F9018951F93CF93DF93EC017E
:10074000FE0121961491112339F01A3011F48DE035
:1007500012DE812F10DEF4CFDF91CF911F9108952B
:04076000F894FFCF3B
:00000001FF
