:10000000A8C00000C1C00000BFC00000BDC000000B
:10001000BBC00000B9C00000B7C00000B5C0000000
:10002000B3C00000B1C00000EBC000000AC1000076
:10003000ABC00000A9C00000A7C00000A5C0000020
:10004000A3C00000A1C000009FC000009DC0000030
:100050009BC0000099C0000097C0000095C0000040
:1000600093C0000091C000008FC000008DC0000050
:100070008BC0000089C0000087C0000085C0000060
:1000800083C0000081C000007FC000007DC0000070
:100090007BC0000079C0000077C0000075C0000080
:1000A00073C0000071C000006FC0000000010000BC
:1000B000E3001200020000F50022002200001701F8
:1000C0001600210000070109000300002D010401B2
:1000D00003090431010A020309043D011201C102AE
:1000E0000000001201000200000020C0167704008A
:1000F000010102000109022200010100C0320904CD
:100100000000010300000009211101000122160076
:10011000070581030800800600FF0A0001A10175A0
:1001200008150026FF00950609029102C004030984
:10013000040A0350004A0052004300000012035218
:1001400000650062006F006F0074006F00720000B5
:10015000000011241FBECFEFDAE0DEBFCDBF11E0FB
:10016000A0E0B1E0E0E2F5E002C005900D92A03021
:10017000B107D9F711E0A0E0B1E001C01D92A130B4
:10018000B107E1F702D0CAC13BCF80E8809361009C
:1001900084E08093610014B88FEF85B917B888B9EF
:1001A0001AB88BB91DB88EB910BA81BB12D02AEF1C
:1001B00030E0C9010197F1F783B7817F83BFF894DD
:1001C00083B7816083BF7894889583B78E7F83BF20
:1001D000F0CF81E08093D70080EA8093D80082E15D
:1001E00089BD09B400FEFDCF80E98093D80010924C
:1001F000E0001092000188E08093E2007894089576
:100200001F920F920FB60F9211248F938091E100ED
:100210001092E10083FF0FC01092E90081E080930B
:10022000EB001092EC0082E28093ED0088E0809376
:10023000F000109200018F910F900FBE0F901F9051
:1002400018951F920F920FB60F9211240F931F93C0
:100250002F933F934F935F936F937F938F939F93CE
:10026000AF93BF93EF93FF931092E9008091E80062
:1002700083FF3EC14091F1003091F1008091F10087
:10028000A82FB0E02091F100922F80E0A82BB92B8D
:100290008091F100682F70E02091F100922F80E0B2
:1002A000682B792B1091F1000091F10082EF80937F
:1002B000E800363009F05AC023EB30E0A901455080
:1002C0005040F9013797859194918A179B0701F562
:1002D000FA018591949186179707D1F49A012E5FC0
:1002E0003F4FF901659174912E5F3F4FF9014491A1
:1002F000212F30E0902F80E0282B392B2F3F310524
:1003000019F010F02FEF30E0241758F4422F09C0F5
:10031000295F3F4F495F5F4FF0E0243E3F0789F67A
:10032000E7C05EEF8091E800282F30E0C9018570BA
:100330009070892BB9F322FDDEC0342F413208F0D2
:1003400030E2232FCB0106C0FC010196E491E0933B
:10035000F10021502223C1F7630F711D431B5093FD
:10036000E8004423F9F63032E9F2C5C0353061F4D3
:100370008EEF8093E8008091E80080FFFCCF8A2F09
:1003800080688093E300B7C0393031F5442309F029
:1003900072C0A09300018EEF8093E8008DED90E095
:1003A00021E02093E900FC010196E491E093EB0049
:1003B000EE2369F0AC014F5F5F4FFC0184918093A5
:1003C000EC00CA010196FA0134913093ED002F5FE1
:1003D000253039F78EE14AC0383061F4403809F0F1
:1003E0004AC08091E80080FFFCCF8091000180939B
:1003F000F1007AC03323D1F48091E80080FFFCCF74
:10040000423811F080E00DC06093E9008091EB006C
:1004100090E025E0969587952A95E1F781701092F6
:10042000E9008093F1001092F1005EC0313011F0CC
:10043000333009F54230F9F4AB2BE9F4262F2F774E
:10044000822F81508430B8F48EEF8093E80020939F
:10045000E900333009F44CC089E18093EB0081E07E
:1004600090E002C0880F991F2A95E2F78093EA0076
:100470001092EA0040C0672BD9F54132C9F53930F6
:10048000B9F58091E80082FFFCCF8091F100909156
:10049000F1002091F1003091F1004091F100509174
:1004A000F1008237D1F49536C1F42236B1F43F36EB
:1004B000A1F44F3691F4543781F415B818B81BB82D
:1004C0008FEF84B987B98AB998E09A95F1F714B893
:1004D00017B81AB885B988B98BB98BEF8093E80043
:1004E0008091E80080FFFCCF8EEF8093E80003C08E
:1004F00081E28093EB00FF91EF91BF91AF919F91CB
:100500008F917F916F915F914F913F912F911F91AB
:100510000F910F900FBE0F901F901895F894FFCF7A
:00000001FF
